:020000040800F2
:10000000382B00200101000885210008951D0008FB
:10001000A5200008250700086D2A00080000000040
:100020000000000000000000000000002125000882
:100030002707000800000000F92400082325000815
:100040001B0100081B0100081B0100081B01000820
:100050001B0100081B0100081B0100081B01000810
:100060001B0100081B0100081B0100081B01000800
:100070001B0100081B0100081B0100081B010008F0
:100080001B0100081B0100081B0100081B010008E0
:100090001B0100081B0100081B0100081B010008D0
:1000A0001B0100081B0100081B0100081B010008C0
:1000B000D12500081B010008DD2500081B010008F0
:1000C0001B0100081B0100081B0100081B010008A0
:1000D0001B0100081B010008152A0008212A00083E
:1000E0001B0100081B0100081B010008DFF80CD0F1
:1000F00000F056F900480047F93C0008382B002072
:100100000648804706480047FEE7FEE7FEE7FEE7B1
:10011000FEE7FEE7FEE7FEE7FEE7FEE789250008CB
:10012000ED00000840EA01039B0703D009E008C97D
:10013000121F08C0042AFAD203E011F8013B00F8AC
:10014000013B521EF9D27047D2B201E000F8012BF8
:10015000491EFBD270470022F6E710B513460A4647
:1001600004461946FFF7F0FF204610BD0FB400B556
:100170008DB010A909900B9000914FF0FF300A90BC
:1001800000200C9005480690054807906A4609A88B
:100190000F9900F0D7F80DB05DF814FB610300086B
:1001A0007F0300082DE9FF5F1D464FF0FF3BD5E9B7
:1001B000014691465F464FF00008A9697F1C0198EF
:1001C0008847296A824688470028F6D1BAF1FF3F5E
:1001D0000CD024F4C064002E19DD600614D5BAF1E9
:1001E0002B0F09D0BAF12D0F0ED103E0584604B001
:1001F000BDE8F09F44F48064A9697F1C019888479A
:10020000761E8246002E02DDBAF1300F03D0B9F11E
:10021000000F26D032E0A969761E44F400747F1CDA
:10022000019888478246002E05DDBAF1780F06D086
:10023000BAF1580F03D0B9F1000F10D01EE0B9F198
:10024000000F02D0B9F1100F18D1A969761E24F45D
:1002500000747F1C019888478246102002E0082025
:1002600000E00A20814609E008FB0908A969761E1A
:1002700044F400747F1C019888478246002E05DDF7
:100280004946504600F04AF80028EDDAE96901983D
:100290008847A00502D46FF00100A8E7E00725D148
:1002A000600613D5600502D5C8F1000000E04046A5
:1002B00029680A1D2A600968220501D5087015E021
:1002C000220701D5088011E008600FE02868011DB1
:1002D00029600068210502D580F8008006E021072A
:1002E00002D5A0F8008001E0C0F8008038467EE723
:1002F00030B50B46014600202022012409E021FAF6
:1003000002F59D4205D303FA02F5491B04FA02F5F2
:100310002844151EA2F10102F1DC30BD3A2800D2BA
:10032000303820F02002412A01D3A2F13700884260
:1003300001D34FF0FF307047026811441378016019
:1003400018467047D1600449516104491162002187
:100350001161114600F03CB839030008C5030008DC
:10036000426842B1016811F8013B23B1521EC0E955
:100370000012184670470121C160881E704742680C
:100380005AB1C368016843B983688B4205D0491EDE
:10039000521CC0E90012002070474FF0FF30704738
:1003A000064C074D06E0E06840F0010394E80700C2
:1003B00098471034AC42F6D3FFF79CFE7C550008FA
:1003C0009C550008C0B24FF4F05100F097B90000FE
:1003D0002DE9F34F8BB04FF0000801F10C000C46F3
:1003E0004FF0010B46460DF1080A019062690121A8
:1003F00001989047051E2DD0252D2CD0216A8847C5
:10040000C0B16269012101989047216A884700289C
:10041000F7D1411E62690198904700E0761CA169FE
:100420000B988847216A88470028F7D1E1690B9823
:100430008847DBE7A1690B9888470746A84201D1A6
:10044000761CD3E7E1690B9888477F1C02D1B8F18D
:10045000000F6FD046E1002762693D46394601989A
:1004600090472A2804D1626901210198904701250B
:10047000DFF884926269012101989047A0F1300170
:100480000A290AD24F45E5DC07EB870100EB41075B
:10049000303FDFD445F01005ECE7E90601D46FF0FA
:1004A00000476C280AD04C2814D0682815D06A2838
:1004B0000DD074281CD07A281AD01DE06269012161
:1004C000019890476C2802D045F0040514E045F0EF
:1004D00002050DE045F020050AE06269012101985E
:1004E0009047682802D045F0080505E045F400650E
:1004F0006269012101989047C4E9015765283DD000
:1005000019DC58287AD00CDC452837D004DC2528A3
:1005100026D0412831D131E046282FD047282CD190
:100520002CE05B2877D0612828D063287CD0642811
:1005300023D15AE0D0E06F2848D008DC66281DD0CF
:1005400067281BD0692821D06E2816D127E0702893
:1005500045D0732868D0752847D078280DD14DE054
:10056000A1690B988847054625283FF469AFE169E2
:100570000B9888476D1C3FF46AAFB3E023466A4688
:100580006FF001000B99AFF300809EE045F0400052
:100590006060A80723464FF0000236D43EE0E8072B
:1005A0007FF447AF2068011D21600068290501D54F
:1005B00006701BE7290701D5068017E7A90703D5B1
:1005C000F117C0E9006111E706600FE745F0400050
:1005D0006060A80723464FF0080216D41EE040F6DC
:1005E0000E0125EA0100606016E045F04000606001
:1005F000A80723464FF00A0207D40FE045F0400059
:100600006060A80708D5234610226FF001000B99FF
:10061000AFF3008059E007E0234610226FF001009D
:100620000B99FFF7BFFD50E04FF000094F464B46D6
:10063000632802D05B2806D040E0E80601D4012000
:10064000A06001273AE062690121019890475E2885
:1006500005D14FF001096269494601989047216927
:1006600039B900210A46534643F82120491C08297C
:10067000FADBB0B3216969B9C11700EBD16253113C
:100680000AEB830122F01F02821A01200B689040BE
:1006900003430B6062690121019890475D28E8D10E
:1006A000B9F1000F09D00020514651F82020D24363
:1006B00041F82020401C0828F7DB02AB22460097B7
:1006C0006FF001000B99AFF3008000280CDA401C9A
:1006D00008D1BBF1000F05D04FF0FF300DB0BDE8E1
:1006E000F08FFFE74046F9E7E90701D108F101087B
:1006F00006444FF0000B79E6CCCCCC0C7F2801D916
:10070000002208E0064A02EB5002C007127800D12E
:10071000120902F00F0201209040084070470000CB
:100720003A550008FEE7704710B53CA13D4802F07D
:10073000AFF900213B4A084601F0C6FE3AA200216B
:10074000282001F059FE35A1364802F0A1F9354ABA
:100750000021582001F0B8FE35A20221002001F04E
:100760004BFE354C35A12F48A26802F091F92D4A75
:100770000221202001F0A8FE32A12A48626802F07E
:1007800087F9284A0221482001F09EFE2078F8B11E
:100790002FA20421002001F02FFE30A12148226960
:1007A00002F076F91F4A0421422001F08DFE2DA2AD
:1007B0000621002001F020FE28A11A48A26902F0BB
:1007C00067F9184A06214220BDE8104001F07CBEBE
:1007D00027A20421002001F00FFE27A11148E268A2
:1007E00002F056F90F4A0421202001F06DFE24A1E9
:1007F0000C4802F04DF90B4A0421502001F064FE30
:1008000021A20621002001F0F7FD21A1054862691F
:1008100002F03EF90621034A2020D5E720202020BF
:1008200020000000B8020020D0ADB5F7C6F70000E8
:10083000CEC2B6C800000000000000203A25326495
:1008400020430000202049443A2532640000000083
:10085000B9E2D5D5C7BFB6C8000000002534647022
:10086000706D0000BFD5C6F8D6CAC1BF0000000039
:10087000CAAAB6C8000000003A2532642025250027
:100880002020202020200000D1CCCEED0000000050
:100890003A20253464202070706D2000FEE790F827
:1008A00021100022022905D00421816380F8202034
:1008B0000120704701680B6823F00E030B6001688C
:1008C0000B6823F001030B6090F84030D0F83CC077
:1008D000012101FA03F3CCF8043080F8211080F8EC
:1008E000202010467047000010B5002490F8211019
:1008F000022903D004218163012437E001680A68DA
:1009000022F00E020A6001680A6822F001020A6001
:10091000174A0168914201D101211CE0154A914218
:1009200001D1102117E0144A914201D1891512E03A
:10093000124A914201D189140DE0114A914202D12B
:100940004FF4803107E00F4A914202D14FF48011F9
:1009500001E04FF080710C4A5160012180F82110B4
:10096000002180F82010416B01B18847204610BD5E
:10097000080002401C0002403000024044000240D7
:10098000580002406C0002400000024070B504466E
:1009900000F01CF90546B4F1FF3F02D0044800788E
:1009A000044400F013F9401BA042FAD370BD0000CC
:1009B000400000202DE9F84F4FF0000C00230A689A
:1009C000002A7DD0DFF8DC810F27A8F1040A08F1A6
:1009D0000409AAF1040B012202FA0CF60A6832405B
:1009E000B2426ED1DFF8C0E14C68A4EB0E0574454D
:1009F0002BD00DDC032C34D005DC34B3012C19D002
:100A0000022C2FD11BE0112C16D0122C2AD119E068
:100A1000B5F5881F19D006DCB5F5803F15D0B5F5C2
:100A2000801F1FD111E0B5F5001F0ED0B5F5041FD2
:100A300018D10AE0CB6815E0CB681B1D12E0CB682B
:100A400008330FE0CB680C330CE08B6823B1012B2B
:100A500004D00823466105E0042303E0082306616F
:100A600000E00023B2F5807F01D2054601E000F1ED
:100A7000040502D24FEA8C0403E0ACF108044FEA0B
:100A800084042E6807FA04FE26EA0E0603FA04F42C
:100A900046EA04042C604C6814F0805F79D0434C23
:100AA000A56945F00105A561A46904F0010400945D
:100AB0002CF0030404F1804404F58034A66801E0BE
:100AC0006EE066E04FEA8C754FEA157507FA05FE91
:100AD00026EA0E0EA0F18046B6F584361ED0A0F1AF
:100AE0008046B6F586361BD0A0F18046B6F588362E
:100AF00018D0A0F18046B6F58A3615D0042606FA3D
:100B000005F545EA0E05A5604C6814F4801F0DD06C
:100B1000D8F800401443C8F800400CE00026EEE787
:100B20000126ECE70226EAE70326E8E7D8F80040CA
:100B30009443C8F800404C6814F4001F05D0D9F85D
:100B400000401443C9F8004004E0D9F80040944341
:100B5000C9F800404C6814F4003F05D0DAF80040B2
:100B60001443CAF8004004E0DAF800409443CAF89D
:100B700000404C6814F4803F05D0DBF8004022436D
:100B8000CBF8002005E0DBF8004024EA0202CBF8B5
:100B900000200CF1010C0A6832FA0CF27FF41BAF52
:100BA000BDE8F88F08040140000011100010024059
:100BB0008068084201D00120704700207047002A59
:100BC00001D00161704709040161704701488068E4
:100BD000704700004000002070B50446002C23D070
:100BE00021684CF6CC400860216845F255500860F9
:100BF0002168606848602168A0688860FFF7E6FFA8
:100C000005462068C06810F0030F14D041F23C364E
:100C1000FFF7DCFF401BB04208D92068C06810F025
:100C2000030F03D0032070BD012070BD2068C06891
:100C300010F0030FECD121684AF6AA2008600020CA
:100C400070BD00684AF6AA210160002070470000CC
:100C5000024881680278114481607047400000209A
:100C600010B50748016841F010010160032000F051
:100C70008BF8002000F006F800F026F8002010BDE8
:100C80000020024070B504460D4D4FF47A7128786B
:100C9000B1FBF0F00B490968B1FBF0F000F0BCFBD0
:100CA00008B1012070BD102C07D200222146501E31
:100CB00000F036F86C60002070BD012070BD0000AF
:100CC000400000203C0000200C4808B5816941F03C
:100CD00001018161816901F001010091C16941F067
:100CE0008051C161C069064900F080500090486899
:100CF00020F0E06040F00070486008BD0010024045
:100D00000000014000280ADB00F01F01012202FA66
:100D100001F14009800000F1E020C0F800117047A7
:100D200010B4184B1B68C3F30223C3F1070CBCF1CA
:100D3000040F01D94FF0040C1C1D072C01D2002315
:100D400000E0DB1E012404FA0CFCACF1010C0CEAFF
:100D50000101994004FA03F35B1E1A401143002875
:100D600006DB00F1E020090180F8001410BC704798
:100D700000F00F0000F1E020090180F8141D10BC04
:100D8000704700000CED00E000F00700064A116813
:100D90004FF6FF03194041EA002040F0FD7040F09B
:100DA00080601060704700000CED00E0BFF34F8FD3
:100DB00005480168054A01F4E06111430160BFF391
:100DC0004F8F00BFFDE700000CED00E00400FA05C6
:100DD0002DE9F04704460D46002C17D0DFF85C8162
:100DE000D8F8000000F00700A84212D2D8F800009E
:100DF00020F007002843C8F80000D8F8000000F0F1
:100E00000700A84205D00120BDE8F0870120BDE819
:100E1000F08720684A4E10F0020F14D010F0040F33
:100E200003D0706840F4E0607060207810F0080F24
:100E300003D0706840F460507060706820F0F0017A
:100E4000A06808437060207810F0010F3AD0606805
:100E5000012806D002280BD0316811F0020F27D0EC
:100E60000AE0316811F4003F06D10120BDE8F087A7
:100E7000316811F0007F18D0716821F00301084338
:100E80007060FFF7A3FE07467068616800F00C0011
:100E9000B0EB810F16D041F28839FFF797FEC01BE7
:100EA000484508D90320BDE8F0870120BDE8F08758
:100EB0000120BDE8F0877068616800F00C00B0EBBD
:100EC000810FEAD1D8F8000000F00700A8420FD93E
:100ED000D8F8000020F007002843C8F80000D8F830
:100EE000000000F00700A84202D00120BDE8F08712
:100EF000207810F0040F05D07068E16820F4E060FD
:100F000008437060207810F0080F06D070682169DF
:100F100020F4605040EAC100706000F03FF8716852
:100F2000084AC1F30311515CC840074908600748EB
:100F30000068FFF7A7FE0020BDE8F0870020024010
:100F400000100240084100083C000020440000203E
:100F500001480068704700003C00002000B5FFF722
:100F6000F7FF04494968044AC1F30221515CC840B3
:100F700000BD0000001002401841000800B5FFF756
:100F8000E7FF04494968044AC1F3C221515CC840E3
:100F900000BD000000100240184100080E4B5968C7
:100FA0000E4801F00C02042A11D0082A0FD10C4877
:100FB000C1F38342805C11F4803F09D05968094A2B
:100FC000C1F34041515C054A5043B0FBF1F070471A
:100FD00005494843704700000010024000127A00A3
:100FE000224100082041000800093D002DE9F84F8A
:100FF0000446002C0FD02078F84D10F0010F6CD073
:10100000686800F00C0004280CD0686800F00C0040
:10101000082803D010E00120BDE8F88F686810F4BC
:10102000803F09D0286810F4003F56D0606800283F
:1010300053D10120BDE8F88F6068B0F5803F15D02E
:10104000C8B1B0F5A02F1FD0286820F480302860E8
:10105000286820F480202860606858B3FFF7B6FD48
:101060000646286810F4003F17D036E0286840F4A0
:1010700080302860F0E7286820F4803028602868F5
:1010800020F480202860E7E7286840F4802028606A
:10109000286840F480302860DEE7FFF797FD801B6A
:1010A000642802D90320BDE8F88F286810F4003FB7
:1010B000F3D012E0FFF78AFD0646286810F4003FDF
:1010C0000BD0FFF783FD801B642802D90320BDE805
:1010D000F88F286810F4003FF3D12078C04F10F04B
:1010E000020F4FF0010B4FF0000854D0686810F069
:1010F0000C0F14D0686800F00C00082803D1686851
:1011000010F4803F0BD0206978B3C7F800B0FFF728
:101110005DFD0646286810F0020F12D01DE0286819
:1011200010F0020F05D02069012802D00120BDE88F
:10113000F88F2868616920F0F80040EAC100286053
:1011400029E0FFF743FD801B022802D90320BDE8F8
:10115000F88F286810F0020FF3D02868616920F03A
:10116000F80040EAC100286015E0FFE7C7F80080FA
:10117000FFF72CFD0646286810F0020F0BD0FFF792
:1011800025FD801B022802D90320BDE8F88F2868BE
:1011900010F0020FF3D1207810F0080F30D09148F2
:1011A000A169C1B1C0F800B0FFF710FD0646686A3A
:1011B00010F0020F0BD1FFF709FD801B022802D9A6
:1011C0000320BDE8F88F686A10F0020FF3D0012009
:1011D00001F094F914E0C0F80080FFF7F7FC064630
:1011E000686A10F0020F0BD0FFF7F0FC801B02289A
:1011F00002D90320BDE8F88F686A10F0020FF3D11E
:10120000207810F0040F6FD00026E86910F0805F9E
:1012100008D1E86940F08050E861E86900F080504A
:1012200000900126DFF8C0A1DAF8000010F4807FFA
:101230001BD1DAF8000040F48070CAF80000FFF714
:10124000C5FC8146DAF8000010F4807F0DD1FFF76D
:10125000BDFCA0EB0900642802D90320BDE8F88F8B
:10126000DAF8000010F4807FF1D0E068012816D091
:10127000D0B1052821D0286A20F001002862286A10
:1012800020F004002862E06841F2883A68B3FFF772
:101290009DFC8146286A10F0020F17D03AE0286AB8
:1012A00040F001002862EEE7286A20F00100286281
:1012B000286A20F004002862E5E7286A40F004006C
:1012C0002862286A40F001002862DCE7FFF77EFC14
:1012D000A0EB0900504502D90320BDE8F88F286A29
:1012E00010F0020FF2D015E01AE0FFE7FFF76EFCF6
:1012F0008146286A10F0020F0CD0FFF767FCA0EBC4
:101300000900504502D90320BDE8F88F286A10F083
:10131000020FF2D1012E03D1E86920F08050E8617C
:10132000E069E8B3696801F00C0108295ED0022881
:1013300010D0C7F86080FFF749FC0446286810F019
:10134000007F66D0FFF742FC001B022841D9032032
:10135000BDE8F88FC7F86080FFF738FC06462868BC
:1013600010F0007F0BD0FFF731FC801B022802D960
:101370000320BDE8F88F286810F0007FF3D1206AC1
:10138000B0F5803F05D16868A16820F400300843BB
:101390006860616A206A0843696821F4741100E09A
:1013A00037E008436860C7F860B0FFF70FFC0446F9
:1013B000286810F0007F2CD1FFF708FC001B0228E2
:1013C00002D90320BDE8F88F286810F0007FF3D021
:1013D0001FE0286810F0007FB4D11AE0001002402E
:1013E00000004242800442420070004001280DD0BB
:1013F0006868226A00F48031914204D1616A00F485
:101400007010884205D00120BDE8F88F0120BDE8AA
:10141000F88F0020BDE8F88F401EB0F1807F01D327
:10142000012070474FF0E0214861044AF02010701D
:1014300000208861072008610020704723ED00E04C
:101440007047704730B490F83C20012A30D0012416
:1014500080F83C40022280F83D200268D2F804C0A7
:1014600093682CF0700C0D6845EA0C0CC2F804C0AF
:101470000268A2F1804CBCF5963C0CD0B2F1804FD2
:1014800009D0A2F1804CBCF5806C04D0A2F1804C54
:10149000BCF5006C04D123F08003496819439160C6
:1014A00080F83D40002180F83C1030BC002070479F
:1014B00030BC0220704710B50446002C03D094F8CD
:1014C0003D0010B107E0012010BD002084F83C0071
:1014D000204600F01FF8022084F83D00211D2068FE
:1014E00001F082F8012084F8460084F83E0084F878
:1014F0003F0084F8400084F8410084F8420084F8FA
:10150000430084F8440084F8450084F83D0000203E
:1015100010BD000008B500681049B0F1804F14D02C
:101520000F4A904219D1C86940F00400C861C869E7
:10153000002200F00400009011461E20FFF7F0FB8F
:10154000BDE808401E20FFF7DDBBC86940F0010080
:10155000C861C86900F00100009008BD0010024099
:101560000008004090F83D10012901D0012070478B
:10157000022180F83D100168CA6842F00102CA6089
:101580000068A0F18041B1F5963112D0B0F1804FE2
:101590000FD0A0F18041B1F580610AD0A0F1804167
:1015A000B1F5006105D0016841F001010160002042
:1015B0007047816801F007010629F8D0016841F001
:1015C00001010160F3E770B50446002594F83C0082
:1015D000012818D0012684F83C60022084F83D00E0
:1015E0002068826822F0770222F47F4282600868D5
:1015F000502839D00EDC202854D006DC002851D0E9
:10160000102811D14EE0022070BD30284AD0402869
:101610000AD13DE0602831D070280DD0B0F5805F50
:1016200003D0B0F5005F13D0012584F83D600020A1
:1016300084F83C00284670BDCB684A6889682068F9
:1016400001F016F82068816841F077018160ECE7CD
:10165000CB684A688968206801F00AF820688168C8
:1016600041F480418160E0E7CA684968206801F080
:1016700012F85021206801F006F8D6E7CA684968D8
:10168000206801F01BF86021206800F0FCFFCCE727
:10169000CA684968206800F0FEFF4021206800F019
:1016A000F2FFC2E722680146104600F0ECFFBCE7FB
:1016B00070472DE9F04104462068C56806694FF07F
:1016C000000716F0020F16D015F0020F13D0F91E06
:1016D0000161012020772068806910F0030F03D09A
:1016E0002046FFF7E5FF05E0204600F090F8204691
:1016F00000F08EF8277716F0040F18D015F0040FBD
:1017000015D021686FF0040008610220207720685E
:10171000806910F4407F03D02046FFF7C9FF05E041
:10172000204600F074F8204600F072F8277716F093
:10173000080F18D015F0080F15D021686FF00800B9
:101740000861042020772068C06910F0030F03D0DF
:101750002046FFF7ADFF05E0204600F058F8204690
:1017600000F056F8277716F0100F18D015F0100F6C
:1017700015D021686FF010000861082020772068DC
:10178000C06910F4407F03D02046FFF791FF05E0C9
:10179000204600F03CF8204600F03AF8277716F093
:1017A000010F09D015F0010F06D021686FF001007C
:1017B0000861204600F02EF816F0800F09D015F0D1
:1017C000800F06D021686FF0800008612046FFF787
:1017D00037FE16F0400F09D015F0400F06D02168F3
:1017E0006FF040000861204600F044F816F0200F2A
:1017F0000BD015F0200F08D021686FF02000086191
:101800002046BDE8F041FFF71CBEBDE8F0817047FF
:101810007047000010B504461248844207D102F018
:101820005DFA02F0A3F810494888401C48800F492F
:101830002068884214D10E490878002810D0D1F8C9
:101840005C02401CC1F85C02232809D30020087008
:1018500001224A70C1F85C02BDE8104000F024BCCF
:1018600010BD0000D8020020000000200008004049
:10187000580000207047704770470000F8B50446D4
:1018800022681068D168536900F00F0CBCF1000F9A
:101890000AD110F0200F07D011F0200F04D02046FD
:1018A000BDE8F84000F05ABF0025BCF1000F75D02C
:1018B00003F0010C01F490765CEA06066ED010F09D
:1018C000010F06D011F4807F03D0626C42F0010258
:1018D000626410F0040F06D013F0010F03D0626CA5
:1018E00042F00202626410F0020F06D013F0010F02
:1018F00003D0626C42F00402626410F0080F08D05A
:1019000001F0200252EA0C0203D0626C42F008029D
:101910006264626C002A35D010F0200F05D011F0FF
:10192000200F02D0204600F019FF20684069C0F364
:101930008010616C11F0080F00D148B3204600F010
:10194000D9FE2068406910F0400F1CD02068143088
:1019500050E8001F21F0400140E80012002AF5D1B4
:10196000E06B60B15E494163E06BFEF7BDFF0028AC
:1019700008D0E06B416B01B0BDE8F040084720465D
:10198000FFF77AFFF8BD2046FFF776FFF8BD05E0C8
:10199000FFE72046FFF770FF6564F8BD236B012B5E
:1019A0007DD110F0100F7AD011F0100F77D01068A1
:1019B0005068009050694FF0200310F0400F4FF036
:1019C000020643D0E16B0868406880B20028E4D08A
:1019D000A28D8242E1D9E085886920282DD0206837
:1019E0000C3050E8001F21F4807140E80012002AFA
:1019F000F5D12068143050E8001F21F0010140E8C3
:101A00000012002AF5D12068143050E8001F21F0A0
:101A1000400140E80012002AF5D184F842302563E5
:101A200020680C3050E8001F21F0100140E800123F
:101A3000002AF5D1E06BFEF732FF6663A08DE18DE1
:101A4000401A81B22046FFF716FFF8BDA08DE18D48
:101A5000401A81B2E08D0028F7D00029F5D0206827
:101A60000C3050E8002F22F4907240E8002CBCF1BA
:101A7000000FF4D12068143050E8002F22F001024A
:101A800040E8002CBCF1000FF4D184F8423025630B
:101A900020680C3050E8002F22F0100200E008E02F
:101AA00040E80023002BF3D166632046FFF7E3FEF6
:101AB000F8BD10F0800F07D011F0800F04D0204641
:101AC000BDE8F84000F030BF10F0400FF0D011F04A
:101AD000400FEDD02046BDE8F84000F032BE0000D7
:101AE000E526000870B50446002C04D094F84100A7
:101AF000002510B106E0012070BD84F8405020465A
:101B000000F024F8242084F841002068C16821F402
:101B10000051C160204600F087FE2068016921F471
:101B2000904101612068416921F02A0141612068EA
:101B3000C16841F40051C1606564202084F841000F
:101B400084F842006563002070BD0000F0B585B0E8
:101B5000002400940194029403943B490068394F97
:101B600002220323394D0E15B8421AD1886940F478
:101B700080408861886900F480400490886940F062
:101B8000040088618869039300F0040004904815FC
:101B9000CDE9000269462846FEF70CFFCDE9006456
:101BA0001DE02B4FB84221D1C86940F40030C86114
:101BB000C86900F400300490886940F0040088612E
:101BC0008869694600F0040004900420CDE9000211
:101BD00003932846FEF7EEFE0820CDE9000469468F
:101BE00028460294FEF7E6FE05B0F0BD194DA84266
:101BF000FAD1C86940F48020C861C86900F4802027
:101C00000490886940F0080088618869124D00F0EE
:101C10000800CDE90330CDE9006269462846FEF7A9
:101C2000C9FEE814CDE90004694628460294FEF78F
:101C3000C1FE002211462720FFF772F82720FFF788
:101C400061F8D1E70038014000100240000801406F
:101C50000044004000480040000C014090F8423031
:101C6000202B01D00220704721B11AB10023036359
:101C700000F03EBE0120704710B500680749884259
:101C80000AD10121064801F01DFEBDE810400122E5
:101C900003490448FFF7E2BF10BD000000440040C4
:101CA00020000020B00300202DE9F84304460E4632
:101CB00015461F4694F84100202802D00220BDE8B6
:101CC000F8837EB175B100206064212084F8410062
:101CD000FEF77CFF8146A584E584A068B0F5805FAF
:101CE00003D004E00120BDE8F883206990B13546B7
:101CF0000026E08C4FF02008C8B14B46002280211E
:101D00002046009700F03FFE30B184F84180032068
:101D1000BDE8F8830025ECE7B5B121682878486074
:101D20006D1CE08C401EE084E08C0028E5D14B4621
:101D3000002240212046009700F025FE58B184F88B
:101D400041800320BDE8F88330882168C0F3080093
:101D50004860B61CE5E784F841800020BDE8F883C0
:101D600090F84130202B01D00220704779B172B138
:101D700001628284C28400214164212180F84110E3
:101D80000068C16841F08001C160002070470120F7
:101D900070477047FEE700002DE9F0470026334CFE
:101DA000334D4FF480574FF400584FF480494FF4AF
:101DB000004A012802D0207808B114E02670394684
:101DC0002846FEF7F5FEA8B141462846FEF7F0FE8C
:101DD00080B149462846FEF7EBFE58B151462846E9
:101DE000FEF7E6FE30B139462846FEF7E1FE01284F
:101DF00027D039E00520FEF7C9FD39462E46284692
:101E0000FEF7D6FE012578B141463046FEF7D0FEFA
:101E100070B149463046FEF7CBFE60B151463046C0
:101E2000FEF7C6FE50B11FE025700120BDE8F08727
:101E300025700220FAE725700320F7E725700420BB
:101E4000F4E741462846FEF7B3FE01280CD1494687
:101E50002846FEF7ADFE012806D151462846FEF77A
:101E6000A7FE012800D126700020DFE74C000020EB
:101E7000000C014070B586B000241D480094019408
:101E800002940394816941F020018161816901F02C
:101E900020010491816941F004018161816901F0AF
:101EA00004010491816941F0080181618069114E4A
:101EB00000F008004FF44075049001222946304696
:101EC000FEF77DFE4FF47040CDE900040120029042
:101ED00069463046FEF76EFD11200095CDE90104FC
:101EE0000320039069463046FEF764FD06B070BDDE
:101EF00000100240000C0140094810B5074901607C
:101F0000032141604FF400618160FEF765FE002807
:101F100003D0BDE81040FEF7C1BC10BD003000404A
:101F2000CC02002010B586B000241648009401941D
:101F30000294039404944FF080410594016041F6AB
:101F40001F41C0E901140921C0E903148461FFF7AE
:101F5000B2FA08B1FEF7A2FC4FF480500090694637
:101F60000848FFF730FB08B1FEF798FC049404A979
:101F700004480594FFF766FA002801D0FEF78EFCAE
:101F800006B010BDD802002010B586B00024174856
:101F900000940194029403940494134905940160FD
:101FA00040F21311C0E901143121C0E90314846126
:101FB000FFF781FA08B1FEF771FC4FF480500090F2
:101FC00069460A48FFF7FFFA08B1FEF767FC049478
:101FD00004A906480594FFF735FA002801D0FEF75A
:101FE0005DFC06B010BD000000080040200300208A
:101FF0000C4810B50A4901604FF4E13141600021FD
:1020000081600C22C160C0E904128161C161FFF7E7
:1020100069FD002803D0BDE81040FEF73FBC10BDAD
:1020200000380140680300200C4810B50A490160DF
:102030004FF416514160002181600C22C160C0E95B
:1020400004128161C161FFF74DFD002803D0BDE896
:102050001040FEF723BC10BD00440040B003002038
:102060000E4810B50C4901604FF4E1314160002188
:1020700081600C22C160C0E904128161C161FFF777
:1020800031FD08B1FEF70AFCBDE810400122044909
:102090000248FFF7E3BD000000480040F8030020BD
:1020A0001C000020FEE700007CB51749264E081FE3
:1020B000031FCDE900011A1F14A1F01CFEF756F80A
:1020C000114C224D143C04280FD0231D03F114029F
:1020D0001FA1F01CFEF74AF802280FD025A000F03F
:1020E000C7FC0020B07070707CBDA0682860E068FC
:1020F00068602069A8606069E860F2E7A06928610B
:1021000060686861EDE70000140000205A696762AA
:1021100065653A7B2254656D70223A25642C22480D
:10212000756D223A25642C22677A5F76616C75653D
:10213000223A25642C224D51325F76616C756522FE
:102140003A25647D00000000580000204004002073
:102150005A69676265653A7B224D513133355F7646
:10216000616C7565223A25642C224944223A256423
:102170007D0000005A69676265655F4572726F7223
:102180000D0A0000704770B5002505F1B000C0B21F
:1021900000F010F9002000F00DF9102000F00AF90D
:1021A0000024002000F017F9641CE4B2802CF8D35E
:1021B0006D1CEDB2082DE8D370BD000070B5012292
:1021C000104D540221462846FEF7F9FC0422521E07
:1021D000FDD20122160231462846FEF7F0FC042209
:1021E000521EFDD2002231462846FEF7E8FC0422AA
:1021F000521EFDD221462846BDE870400022FEF75F
:10220000DEBC0000000C014070B50D4D4FF4807431
:10221000002221462846FEF7D2FC0422521EFDD29F
:10222000012251022846FEF7CAFC0422521EFDD2AA
:1022300021462846BDE870400122FEF7C0BC0000E0
:10224000000C014010B5AE2000F0B4F8002000F002
:10225000B1F8102000F0AEF8402000F0ABF881207B
:1022600000F0A8F8CF2000F0A5F8A12000F0A2F817
:10227000C82000F09FF8A62000F09CF8A82000F0ED
:1022800099F83F2000F096F8D32000F093F8002052
:1022900000F090F8D52000F08DF8802000F08AF84A
:1022A000D92000F087F8F12000F084F8DA2000F05F
:1022B00081F8122000F07EF8DB2000F07BF840204F
:1022C00000F078F8202000F075F8022000F072F895
:1022D0008D2000F06FF8142000F06CF8A42000F0BE
:1022E00069F8A62000F066F8AF2000F063F800213E
:1022F000BDE810400846AFF3008010B50446B03189
:10230000C8B200F057F8102040EA141000F052F85C
:1023100004F00F00BDE8104040F0010000F04AB8A2
:102320002DE9F041224E002405464FF480787715C0
:10233000280601D5012200E0002241463046FEF782
:102340003EFC0420401EFDD2012239463046FEF7F5
:1023500036FC0420401EFDD2002239463046FEF7EE
:102360002EFC0420401EFDD26806641C050EE4B25B
:10237000082CDDD3012241463046FEF720FC042123
:10238000491EFDD2012239463046FEF718FC0422D0
:10239000521EFDD24FF400513046FEF709FC0446B0
:1023A000002239463046FEF70AFC2046BDE8F0819F
:1023B000000C014010B50446FFF700FF7820FFF73E
:1023C000AFFF0020FFF7ACFF2046FFF7A9FFBDE8F5
:1023D0001040FFF719BF10B50446FFF7EFFE782055
:1023E000FFF79EFF4020FFF79BFF2046FFF798FF77
:1023F000BDE81040FFF708BF2DE9F04715468846B5
:102400000746DFF8749031E000204A4600EB0011E7
:1024100012F811409C4222D102EB41066C7871788F
:10242000A1421CD141463846FFF767FF002430190E
:102430008078FFF7D0FF641CE4B2102CF7D308F1CA
:102440000100C1B23846FFF758FF00243019807CE4
:10245000FFF7C1FF641CE4B2102CF7D303E0401C6B
:10246000C0B21128D2D31037FFB2AD1C2B78002B8D
:10247000CAD1BDE8F0870000324100082DE9F041E3
:102480000F4680460024A2F12005FFF736FF0D4ECF
:1024900004EB0510305CFFF79EFF641C082CF7D39B
:1024A0007F1CF9B24046FFF728FF002404EB05101B
:1024B0003044007AFFF78FFF641C082CF6D3BDE888
:1024C000F0810000524300082DE9F04117460E4606
:1024D000044600250BE031462046FFF7CFFF0834C5
:1024E000E4B2782C02D90024B61CF6B26D1C7A5DD9
:1024F000002AF0D1BDE8F0817047000081B00749A3
:102500004FF4FA520968B1FBF2F14843009000BF62
:102510000098411E0091FAD201B070473C000020A3
:102520007047FEF795BB30B58FB028216846FDF7A0
:1025300012FE14210AA8FDF70EFE092001210090C9
:102540004FF48030002404910691CDE90104022566
:10255000CDE907504FF4E01009906846FEF746FDBC
:1025600000B1FEE70F20CDE90A054FF48060CDE908
:102570000C4002210AA80E94FEF72AFC002800D085
:10258000FEE70FB030BD00000D48016841F00101C9
:10259000016041680B4A1140416001680A4A1140DC
:1025A0000160016821F480210160416821F4FE018D
:1025B00041604FF41F0181600449C0030860704707
:1025C000001002400000FFF8FFFFF6FE08ED00E0FB
:1025D0000148FFF76EB80000D80200200148FFF75D
:1025E00068B800002003002030B402681D4B1E4C68
:1025F000DFF878C0984206D0B0F1804F03D0A042F7
:1026000001D0604503D122F070024D682A43984200
:1026100006D0B0F1804F03D0A04201D0604505D173
:1026200022F44072D1F80CC04CEA0202D1F814C076
:1026300022F0800242EA0C0202608A68C2620A68E2
:102640008262984201D109690163012141610169F6
:1026500011F0010F03D0016921F00101016130BCCB
:1026600070470000002C01400004004000080040BA
:10267000D0F808C02CF47F4C42EA0322114341EA0F
:102680000C0181607047826822F07002114341F0B2
:10269000070181607047036AD0F820C02CF0010C5C
:1026A000C0F820C0D0F818C02CF0F00C4CEA021290
:1026B00023F00A031943826101627047036AD0F86C
:1026C00020C02CF0100CC0F820C0D0F818C02CF49A
:1026D000704C4CEA023223F0A00343EA01118261FC
:1026E0000162704710B5406A0021C185C184FFF7BF
:1026F000C3F810BD01680C3151E8002F22F490722C
:1027000041E80023002BF5D10168143151E8002F76
:1027100022F0010241E80023002BF5D1016B0129D1
:1027200009D101680C3151E8002F22F0100241E874
:102730000023002BF5D1202180F8421000210163F5
:10274000704710B50168CA6822F04002CA602021B3
:1027500080F84110FFF71DFB002010BD08B590F870
:102760004210222901D0022008BD8268B2F5805FA4
:1027700001D1016929B1816AB2F5805F1DD052B1E2
:102780000BE0816A02685268C2F308020A80816A1B
:10279000891C816209E002697AB10268526802F01C
:1027A0007F020A70816A491C8162C18D491E090439
:1027B000090CC18505D0002008BD026852680A7066
:1027C000F0E70168CA6822F02002CA600168CA689E
:1027D00022F48072CA6001684A6922F001024A61EB
:1027E000202180F8421000214163026B012A03D0AE
:1027F000FFF742FA002008BD016301680C3151E87F
:10280000002F22F0100241E80023002BF5D10168CF
:102810000A6812F0100F02D00A6849680091818D91
:10282000FFF729F8E6E7000070B504462068016963
:10283000E26821F44051114301612169A068084315
:10284000616901432068C26822F4037222F4A05235
:102850001143C16020684169A26921F440711143AC
:1028600041612068A0F18041B1F59C313AD0FEF77A
:1028700075FB00EBC00101EB001061681B4A890089
:10288000B0FBF1F3A2FB0353B0FBF1FC5B096FF06B
:1028900018056B430CEB83034FF0320C0CEB031366
:1028A000A2FB03535B0903F0F005B0FBF1F3A2FBBD
:1028B00003635B0905EB0313B0FBF1F5B0FBF1F02B
:1028C000A2FB001040096FF01801484305EB80009F
:1028D0000CEB0010A2FB00102168C0F34310184459
:1028E000886070BDFEF74AFBC3E700001F85EB510F
:1028F00081628285C28500214164222180F84210D4
:102900000169002904D00168CA6842F48072CA6073
:1029100001684A6942F001024A610068C16841F0F9
:102920002001C1600020704790F84110212901D09A
:10293000022070478168B1F5805F01D1016961B102
:10294000016A4A1C0262026809785160C18C491E02
:102950000904090CC1840AD013E0016A02680988DD
:10296000C1F308015160016A891C0162EEE7016848
:10297000CA6822F08002CA600068C16841F0400164
:10298000C160002070472DE9F8430446089E0D46BB
:10299000174698462068006835EA000028D00020D5
:1029A000B84232D1B6F1FF3F27D0FEF70FF9A0EBC6
:1029B0000800B0421ED8EEB12068C16811F0040FC3
:1029C0001BD0802D19D0402D17D0016811F0080FB1
:1029D00013D0002521680968406800902046FFF761
:1029E00089FE0820606484F840500120BDE8F88327
:1029F0000120D5E70320BDE8F8832068006835EAA8
:102A0000000005D00020B842CCD00020BDE8F883FB
:102A10000120F8E70148FEF731BF0000B0030020B5
:102A200010B50F48FEF72AFF0E494878012815D047
:102A30000D488B780278C81C1A5488780022401CF4
:102A4000C0B28870C1F85C22012800D10870BDE8CE
:102A50001040012204490248FFF700B910BD0000F0
:102A6000F8030020580000201C000020FEE70000B2
:102A70000FB4054B10B503A9044A029800F02CF8D6
:102A800010BC5DF814FB0000492E00085000002027
:102A90000FB4084B10B504A902AA039800F01CF863
:102AA000044602A9002000F0B8F9204610BC5DF8E9
:102AB00014FB00001B2E000802E008C8121F08C10A
:102AC000002AFAD170477047002001E001C1121FAF
:102AD000002AFBD1704700002DE9FF4F8BB08846DC
:102AE0000546002606E025280BD0DDE90D129047AB
:102AF0006D1C761C28780028F5D10FB03046BDE853
:102B0000F08F0024A146A2460122AE4900E0044312
:102B100015F8013F203B02FA03F00842F7D128786C
:102B20002A2810D06FF02F022878A0F1300109294F
:102B300015D809EB890102EB410144F0020400EBD6
:102B400001096D1CF0E758F8041B5FEA010903D581
:102B500044F40054C9F1000944F002046D1C2878C3
:102B60002E2817D115F8010F44F004042A280ED09E
:102B70006FF02F022878A0F1300109290AD80AEB5A
:102B80008A0102EB410100EB010A6D1CF2E758F8E3
:102B900004AB6D1C28786C280FD006DC4C2817D0AD
:102BA00068280DD06A2814D104E0742810D07A283F
:102BB0000FD10DE044F400140AE044F4801401E065
:102BC00044F440146978814202D104F580146D1CEC
:102BD0006D1C2878692865D006DC00288DD0632814
:102BE00027D0642806D15DE06E2808D073282AD04B
:102BF000752877D0DDE90D129047761CE0E0C4F32C
:102C00000250022809D003280DD0D8F8001004285B
:102C10000DD00E6008F10408D2E0D8F80010F217C9
:102C2000C1E90062F6E7D8F800100E80F2E70E70F6
:102C3000F0E718F8041B8DF8001000208DF8010053
:102C4000EB46012003E058F804BB4FF0FF3061076A
:102C50004FF0000701D40AE07F1C57450DDA874288
:102C6000FADB1BF807100029F6D106E07F1C87422B
:102C7000FCDB1BF807100029F8D1DDE90D23A9EBD7
:102C800007008146214600F0B1F83044C61904E03F
:102C9000DDE90D121BF8010B90477F1EF8D221468B
:102CA000484688E058F8040BC4F302514FF00A0B71
:102CB000032900D100B2042900D140B2002802DA71
:102CC00040422D2102E0210505D52B218DF824104D
:102CD000012104E006E0E10710D02021F6E708AF6B
:102CE000089113E058F8040BC4F302514FF00A0B9B
:102CF000032900D180B2042900D1C0B20021EEE73F
:102D00005946FDF7F5FA303107F8011D0028F7D1D3
:102D1000ADEB070000F1200B600702D524F48034EE
:102D200001E04FF0010ADA4502DDAAEB0B0000E0FA
:102D30000020824600EB0B0108980144A9EB01003A
:102D40000A90E00306D4DDE90D2321460A9800F03D
:102D50004DF806444FF0000908E009A911F80900F0
:102D6000DDE90D12904709F10109761C08998945A2
:102D7000F3DBE0030CD5DDE90D2321460A9800F0D2
:102D800035F8064404E0DDE90D1230209047761C4A
:102D9000BAF10001AAF1010AF5DC05E0DDE90D1246
:102DA00017F8010B9047761CBBF10001ABF1010B4A
:102DB000F4DC0A982146DDE90D2300F005F806440D
:102DC0006D1C97E6092801002DE9F0410446002515
:102DD0001E461746880404D405E039462020B04733
:102DE0006D1C641EF9D52846BDE8F0812DE9F0413F
:102DF000044600251E469046C80301D5302700E052
:102E00002027880404D505E041463846B0476D1CAC
:102E1000641EF9D52846BDE8F0810A68531C0B6092
:102E20001070704701B581B00020ADF800009DF82A
:102E300005008DF800009DF804008DF80100BDF834
:102E400000000CBD00BA704713B54FF6FF730122A6
:102E500069460248FEF728FF00981CBD6803002061
:102E600010B5002821D0114B0022001F196803E083
:102E7000814203D80A4649680029F9D152B1136842
:102E8000841A9C4204D1006818441060104602E085
:102E9000506000E0186039B102680B1A934203D108
:102EA0000B681A4402604968416010BD540000205C
:102EB0002DE9F0410D4606004FF0000468D0EDB357
:102EC00000F060F92B68D6F800C03649364F41F261
:102ED000707263450AD0BB68C31A934206D391F857
:102EE000A933012443F0010381F8A9336B68D6F8B4
:102EF00004C063450AD0BB68C31A934206D391F855
:102F0000A933012443F0020381F8A933AB68D6F852
:102F100008C063450AD0BB68C31A934206D391F830
:102F2000A933012443F0040381F8A933EB68D6F8F0
:102F30000CC063450CD0BB68C31A00E028E0934284
:102F400006D391F8A933012443F0080381F8A9338B
:102F50002B69D6F810C063450AD0BB68C31A9342E8
:102F600006D391F8A933012443F0100381F8A93363
:102F70006B697569AB420FD0BB68C01A90420BD326
:102F800091F8A903012440F0200081F8A90304E08E
:102F90004FF0FF30BDE8F08114B100F0F3F8B860F5
:102FA0002046F7E758040020280000202DE9F04FC4
:102FB00087B04FF00008DFF81C910500CDF80C80B9
:102FC000CDF81080CDF8148099F8290093468A46F0
:102FD0008DF80C004FF0010478D0BAF1000F75D0D5
:102FE000A9F56077C00709D02A680021012000F008
:102FF000C5FC8DF800008DF80D00022497F8A90398
:1030000003AE800708D56A680021012000F0B6FCF5
:103010008DF801003055641C97F8A90340070ED5C0
:10302000AA680021012000F0A9FC80B2FFF7FAFE97
:10303000ADF802003019BDF802100180A41C97F809
:10304000A90300070ED5EA680021012000F096FCD4
:1030500080B2FFF7E7FEADF804003019BDF80410A8
:103060000180A41C97F8A903C0060ED52A69002187
:10307000012000F083FC80B2FFF7D4FEADF806001B
:103080003019BDF806100180A41C97F8A90380062A
:103090000ED56A690021012000F070FC80B2FFF7B4
:1030A000C1FEADF808003019BDF808100180A41C5D
:1030B00089F82980224603A95046CBF80040FDF745
:1030C00031F8002007B0BDE8F08FFFE74FF0FF3088
:1030D000F8E70000D80700202DE9F05F824600F0F5
:1030E00051F8244904464FF000098B465046FFF73B
:1030F000DFFE214D012805F56E71884605F2AA36DE
:1031000010D10A4631465046FFF750FF28B93146E4
:103110001420D5F8B82300F0E5FB18225146584694
:10312000FDF700F81548B4FBF0F100FB1140D8B9E9
:10313000134FF868A04217D00E48FF2201212B3808
:10314000FDF702F8424631465046FFF72FFF28B9F7
:1031500031461420D5F8B82300F0C4FB182251469C
:103160005846FCF7DFFFFC604846BDE8F05FFFF71C
:1031700077BE00002C08002058040020C02709005A
:10318000280000200148406870470000200000200F
:1031900010B5154C94F8410201281CD194F8400256
:1031A000022819D2FFF7EEFFD4F85D13401AC828A1
:1031B00011D994F8410248B1B4F85B1304F24220EB
:1031C00000F066FFFFF7DEFFC4F85D0394F84002ED
:1031D000401C84F8400210BDBDE8104040F22111AF
:1031E0000248FCF7B8BF00005804002098060020F1
:1031F0000EB5C0B101680091406801909DF80400CF
:10320000401C8DF804000520FFF70CFEADF802000D
:103210000921684600F00CFB8DF80800092168467A
:1032200000F036FF0EBD4FF0FF300EBD3EB50D462F
:1032300004001AD0684600F039F912208DF8040015
:1032400060798DF805000620FFF7ECFDADF802006F
:103250008DF808500A21684600F0EAFA8DF8090056
:103260000A21684600F014FF3EBD4FF0FF303EBD1E
:1032700010B59EB0040048D0684600F017F902204F
:103280008DF8040060798DF8050021A02022D0E996
:103290000010CDE9021021A0D0E90010CDE9041002
:1032A00021A0D0E90010CDE9081022A0D0E900103B
:1032B000CDE9061022A10AA8FCF734FF202229A19B
:1032C0000DF15200FCF72EFF0020CDF84A00CDF89A
:1032D0004E009DF8510040F002008DF85100002092
:1032E000FFF7A0FDADF848006F20FFF79BFDADF89C
:1032F00002007321684600F09BFA8DF8720073217A
:10330000684600F0C5FE1EB010BD4FF0FF30FAE772
:103310003030303030303034000000003030303069
:103320003030303200000000303330333030303055
:103330000000000030333031303130300000000008
:10334000653766346262333239346331343137334E
:1033500061633033653536346337363766616631DD
:103360000000000062616139386131613235343901
:103370003437396462656165626136653636333586
:1033800066663439000000002DE9F74F82B0002650
:10339000029835460C46771E80B17CB1049868B11E
:1033A000029800F014FD80B25FEA000806D04FF0EA
:1033B000FF0A4FF0020BB1463B4F50E0384605B0D4
:1033C000BDE8F08F01226946029800F036FDE8B3AF
:1033D0007878FF2805D19DF80000FF2805D05528F2
:1033E00036D03878012817D032E0387858B1B8880C
:1033F00004282DD9A8422BD084F800A084F801A07D
:10340000A7F804B024E084F800A084F801A0A7F88D
:1034100004B0012038701BE0B8889DF800102154DA
:10342000401C80B2B880042812D96088FFF7FAFCEB
:10343000001D85B2B5F58C7F01D8042D03D887F81F
:103440000090A7F80490B888A84200E006E008D0F1
:103450009DF800007870B878401CB870761C46451E
:10346000B0DBB98804291DD9A9421BD1204600F040
:10347000DFF9B988214411F8011C81420BD104986D
:10348000058087F80090A7F8049087F8029087F8E5
:103490000190002093E787F80090A7F804906FF060
:1034A00001008CE701208AE72800002038B10021C4
:1034B00001604160FF2101704170002070474FF0B2
:1034C000FF307047F0B5ADF50D7D16460F004FF09B
:1034D000000544D0012B45D006F105018CB24FF018
:1034E000FF018DF800108DF801104FEA14218DF8BE
:1034F00002108DF80340017901F101018DF80410EB
:1035000041798DF805104FF000018DF806108DF807
:1035100007304FF008010AD100F109018DF8085079
:103520002A460DF10900FCF7FDFD05F109016D4684
:1035300026B1681832463946FCF7F4FD211D68466D
:1035400000F076F92919C870211D684600F0A0FD29
:1035500000280DDA6FF001000DF50D7DF0BD4FF084
:10356000FF30F9E7057A05EB060101F10601B5E741
:103570000020F1E72DE9F0470C00089D94F8008049
:103580001E4617464FF0FF3A23D016B30DB368BB63
:1035900012212348FCF7DFFD4046DFF888804FF01A
:1035A0000009052824D0112802D012281ED102E0DB
:1035B000C5F800901AE01A4861781F3000F138020F
:1035C00080F8291000F12A010C465430FFF7EEFC78
:1035D00010B15046BDE8F0872146701CD8F8B823DA
:1035E000FCF7A0FD132030700C2028600020F1E7CC
:1035F0007A1E611C0C48FCF795FD7F1EC8F83472DA
:10360000074998F86133491C10225A5498F86113FD
:10361000491C88F86113032188F80010C8E70000EE
:10362000B907002058040020720500202DE9F04160
:10363000040028D02089FFF7F5FB2081624E227A12
:1036400062483378C2F3800CC3F38007022500F58B
:103650005D7167452FD05FEA427C4FF000074FEA6B
:10366000C27214D53AB190F87323575490F873236B
:10367000521C80F87323227A92071CD590F873733A
:1036800001227A5412E04FF0FF30BDE8F0813AB1E8
:1036900090F87323575490F87323521C80F87323C7
:1036A000227A920707D590F87323555490F8732324
:1036B000521C80F87323227AC3F3C00CC2F3C007F4
:1036C000BC450FD067F3C3033370120701D5032243
:1036D00000E0042290F873335A5490F87323521C7C
:1036E00080F873233278237AC2F3001CC3F30017E7
:1036F000BC450FD067F304123270DA0601D50522FB
:1037000000E0062290F873335A5490F87323521C49
:1037100080F873233278237AC2F3401CC3F3401736
:10372000BC450FD067F3451232709A0601D50722C7
:1037300000E0082290F873335A5490F87323521C17
:1037400080F873237278637AC2F3C00CC3F3C007A6
:10375000BC450FD067F3C30272701A0701D50B2264
:1037600000E00C2290F873335A5490F87323521CE3
:1037700080F873237278637AC2F3001CC3F30017D6
:10378000BC450FD067F304127270DA0601D5092226
:1037900000E00A2290F873335A5490F87323521CB5
:1037A00080F8732390F873330D225A5490F87313F2
:1037B000491C80F87313617A01F0070180F8EC135B
:1037C0000570002061E700002E0000205804002052
:1037D00010B530B314498268144C41F8702F8289B7
:1037E0008A80827B8A71D0F80F008860B4F8F00379
:1037F000FFF718FBA4F8F003D4F8F803FFF722FB57
:10380000C4F8F80394F8852304F286300E2111548D
:1038100094F88503401C84F8850304202070002060
:1038200010BD4FF0FF3010BDD80700205804002015
:1038300010B503004FF0000003D011B10222491E61
:1038400005E0002010BD9C5C521C2044C0B28A429E
:10385000F9D310BD70B50D46040016D040F2211109
:103860000B48FCF778FC0A482A462146801CFCF7E6
:1038700059FC084C0120A4F85B5384F84102FFF77F
:1038800081FCC4F85D03002070BD4FF0FF3070BDB7
:10389000980600205804002010B5094960B1097944
:1038A0000079491C814205D1054840F22111801E52
:1038B000FCF751FC002010BD4FF0FF3010BD0000A0
:1038C0009A06002070B50D464FF0FF3430B10A461D
:1038D0000146034800F003FBA84200D0204670BD1B
:1038E0009808002030B50B0002F10601C7B08CB279
:1038F00031D0FF218DF800108DF80110210A8DF8CC
:103900000210194D05218DF803408DF80410D5F8EB
:1039100038128DF80510491CC5F8381200218DF8B1
:1039200006108DF807108DF8080019460DF10900F2
:10393000FCF7F8FB211D6846FFF77AFF0DEB040149
:10394000C870211D684600F0A3FB002806DA6FF05E
:10395000010047B030BD4FF0FF30FAE7211D684647
:10396000FFF778FF0020F4E7580400200248416880
:10397000491C41607047000020000020511AB1FB33
:10398000F0F07047002210B109B1007804E04FF068
:10399000FF307047521CD2B29042FBD800207047D3
:1039A0002DE9F0474FF00004ADF5107D5FEA000A05
:1039B0002546ADF83842A14626468F940ED0FFF733
:1039C000E7FB6A4F8EAA791C07F58860FFF7DCFCDD
:1039D00007F57F7850B1801C7ED083E04FF0FF3038
:1039E0000DF5107DBDE8F087641CA4B2BDF8380267
:1039F0008442F9D378797C1C0F2841D00ADC0E2848
:103A000016D2DFE800F0151A151E15154D321515E2
:103A10004D154D36182847D006DC112862D01428E1
:103A20003ED0162804D13BE0222844D02A2837D0A3
:103A300002212046FFF7FAFB54E02046FFF718FC6E
:103A400050E08FA80090BDF83802B919821B01AB75
:103A500048460931093AFFF78DFD00BBE37901A91A
:103A600020468F9AFFF72EFD3CE02046FFF7C0FB73
:103A700038E02046FFF7BCFB2046FFF7D7FD31E0DA
:103A80002046FFF7B5FBFFF77DFB04464FF41676A3
:103A9000FFF778FB001BB042FAD900F093F921E060
:103AA0002046FFF7F9FE1DE02046FFF7F5FE204611
:103AB000FFF78EFE16E02046FFF7EEFE412204F1EE
:103AC00008014046FCF72EFB97F8972328480F2162
:103AD000115497F8970300E00EE0401C87F8970315
:103AE00005203870224C3878373C062826D2DFE88B
:103AF00000F0250A101E2A32781C0121FFF796FBE0
:103B00006FF001006CE71A4918223D7024312046FD
:103B100006E017493D705431A1F1790001220446B5
:103B2000FFF730FF12212046FCF715FB06E03D7041
:103B300010492046D7F83422FFF724FF5046FFF7FC
:103B4000CBFA00204CE70A490C225831A1F16B0056
:103B50003D700446E4E706483D70401E4122414660
:103B60000446FFF70FFF4121DDE700005804002065
:103B7000F007002072050020084810B540F23221FD
:103B8000016000F11001C16000F04EF9BDE8104085
:103B90004FF488610248FCF7DEBA00009808002064
:103BA00058040020F0B5054600272F4C092687B0A1
:103BB000062D0BD2DFE805F0030D0D2E33386846D5
:103BC000FFF774FC0B2033E0FFF744FE07B03846E4
:103BD000F0BD03A8FFF76AFC8DF81060D4F8380236
:103BE0008DF81100401CC4F838028DF814500620DE
:103BF000FFF718F9ADF80E000A2103A8FFF718FE29
:103C00008DF815000A2103A800F042FA07460A21A0
:103C100003A8D9E76846FFF749FC132008E0684687
:103C2000FFF744FC152003E06846FFF73FFC29201E
:103C30008DF80400D4F838028DF80500401CC4F853
:103C400038020520FFF7EEF8ADF8020009216846BA
:103C5000FFF7EEFD8DF808000921684600F018FA1C
:103C6000074609216846AFE7580400202DE9F041D6
:103C70000025184E184F1CE0C5EB051000EB400066
:103C80008419204600F08BF990B1207D06280DD2D2
:103C9000DFE800F0031408171A1DD4F8150003E03C
:103CA000804703E0D4F81D000028F9D100202075DA
:103CB0006D1C38788542DFD3BDE8F081D4F8190057
:103CC000F2E7D4F82100EFE7D4F82500ECE7D4F8C8
:103CD0002900E9E7DA0A0020380000200549487881
:103CE000401CC0B248701E2803D300204870FFF764
:103CF000BDBF704738000020FCF7B2FFFEF713FC91
:103D0000FEF7B8F8FEF70EF9FEF772F9FEF78CF938
:103D1000FEF7A6F9FEF738F9FEF7EEF800220121CA
:103D20001C20FCF7FDFF1C20FCF7ECFF00221146D5
:103D30002620FCF7F5FF2620FCF7E4FFFEF782FAC9
:103D4000FEF721FA18A202211420FEF755FB00F01D
:103D50008FF900F093F900F0D1F9FFF70DFF154846
:103D6000FDF700FC144C00251448FCF76AFF002006
:103D7000FEF712F8022802D0042804D008E002203E
:103D8000FFF710FF04E02078C0432070FEF7FBF936
:103D9000FCF7CAFC00F0B0F96088C828E4D30848F2
:103DA000FFF7FEFD6580DFE7CFB5CDB3B3F5CABC45
:103DB000BBAF00002003002000000020CC02002048
:103DC00040040020012080F31388FCF7EFBF00B50A
:103DD000010005D08A684868824204D1002000BDF5
:103DE0004FF0FF3000BD904201D2101A00BD0846CE
:103DF00000F014F88A684968511A01EB400000BDD0
:103E000000B5010007D000F009F803460846FFF7A7
:103E1000DEFF181A00BD4FF0FF3000BD08B100688A
:103E200070474FF0FF30704720B100214160816042
:103E3000084670474FF0FF3070472DE9F0411546B6
:103E40000F4604000ED06FB16068A168884220461A
:103E50000CD2FFF7BCFFA8420FD22046FFF7B7FFF6
:103E600005460AE04FF0FF30BDE8F081FFF7D6FFCE
:103E70006168C1EB4000A8420DD9204600F023F84C
:103E8000E1682A4601443846FCF74CF9606828444A
:103E900060602846E8E72046FFF7C0FF6168C1EB95
:103EA0004006204600F00FF8E168324601443846EB
:103EB000FCF738F900206060AA1BB9192046FFF70B
:103EC000BCFF3044D0E728B141680068814204D388
:103ED000081A70474FF0FF307047084670472DE9C9
:103EE000F04115460F46040008D03FB1FFF788FFA8
:103EF000A84206D26FF00100BDE8F0814FF0FF301C
:103F0000FAE7A06861688842204630D3FFF786FF51
:103F1000A1684FF00008C1EB4006AE42204615D321
:103F200000F031F8E1682A4608443946FCF7FAF80F
:103F3000A0682844A0602046FFF770FFA168B1EB9D
:103F4000400F01D3C4F808802846D5E700F01BF8DD
:103F5000E168324608443946FCF7E4F8C4F80880C2
:103F6000AA1BB9192046FFF7BAFF3044C4E700F096
:103F70000AF8E1682A4608443946FCF7D3F8A068F5
:103F80002844A060E0E728B181680068814204D33A
:103F9000081A70474FF0FF3070470846704770B5F9
:103FA0000446007A002861D0B4F80D10D4F8090056
:103FB00089B2FCF7FDFDA37C01220021984201D1CA
:103FC000627400E06174E07C40B1032301280AD0F0
:103FD000042503280FD0042847D13EE0607C012847
:103FE00043D1E27441E0607C012801D0E1743CE0FF
:103FF0002275E37424E0607C0128207822D020B967
:1040000022706078401C607061606068401C606075
:104010006278012A02D0022A08D103E0042808D3DA
:10402000022002E0042804D305202075217061706D
:10403000E17460882138852802D261702375E174AB
:10404000618012E0012800D121706088401C80B29C
:104050006080A62809D3E57407E0607C012803D0BE
:104060006180E174217500E02575012070BD0000BC
:104070000148FDF777BA0000D8020020012202496A
:104080000248FDF7EBBD000020000020B003002037
:10409000F8B5070016A00E4600684FF00004009027
:1040A00001D0144D1AE04FF0FF30F8BD391901224C
:1040B0001048FDF755FE95F841002028FBD1022C51
:1040C0000BD3385DFF2808D1012269460948FDF766
:1040D00047FE95F841002028FBD1641CB442E5D38B
:1040E000002200E0521CB242FCD33046F8BD000072
:1040F00055000000B003002070470000182101485F
:10410000FCF729B840040020000000000000000077
:10411000010203040607080900000000010203046D
:10412000010202030405060708090A0B0C0D0E0F15
:104130001010D0AD1010FF1010009010FF1010F0F4
:10414000800000000000FF00048241300F40807FAB
:1041500000010600B5F74042CC0000FE829292FEBC
:10416000929282FE000000003F10887F001E121213
:10417000125E807F0000C6F780809E9292929EE041
:10418000809EB2D2929E80000808F4949292F10030
:1041900001F2929494F80800CEC21060028C0000E4
:1041A000FE9292929292FE00000004047E01407EF4
:1041B00042427E427E42427E4000B6C80000FC245D
:1041C0002424FC252624FC242424040040308F8051
:1041D000844C55252525554C80808000CAAA106046
:1041E000028C00FE929292929292FE0000000404D1
:1041F0007E014448507F40407F5048444000B9E22F
:104200004040424458C0407F40C050484640400073
:104210008080402018070000003F40404040780068
:10422000C7BF02E222223E00809E9292F292929EAC
:104230008000004382423E40474444447F4444540B
:10424000E700D1CC807000FF1008FE424242FA42E3
:104250004242FE00806018070810FF504846414265
:104260004C40FF00CEED100C055555D5057F05558A
:10427000555505140C001010108AA96B352525AB77
:10428000E90810101000BFD5100C442414040506D2
:104290000404142444140C00004040414141417F77
:1042A0004141414140400000C6F820104C47545461
:1042B0005454545454D4040400000000000000007E
:1042C00000000000000F3040F000D6CA0000FE12CF
:1042D0001292929292FF91919191100080601F80B2
:1042E000805F4020100E1010205F8000C1BF202092
:1042F00020BEAAAAAAAAAAAAAABE2020200000809C
:1043000080AFAAAAAAFFAAAAAAAF80800000D5D52A
:1043100000FE424242FE0042A29E82A2C2BE0000B5
:10432000806F080828CF00002FC8080828CF000099
:10433000B6C80000FC242424FC252624FC242424C4
:10434000040040308F80844C55252525554C8080B5
:1043500080000000000000000000000000000000DD
:104360000000000000F800000000000000333000F2
:10437000000000100C06100C0600000000000000F9
:10438000000040C07840C0784000043F04043F046F
:104390000400007088FC08300000001820FF211E77
:1043A0000000F008F000E018000000211C031E21AE
:1043B0001E0000F00888700000001E212324192729
:1043C000211010160E000000000000000000000088
:1043D0000000000000E018040200000000071820A0
:1043E000400000020418E000000000402018070010
:1043F0000000404080F0804040000202010F0102B6
:104400000200000000F0000000000101011F010196
:104410000100000000000000000080B070000000FB
:104420000000000000000000000000010101010187
:10443000010100000000000000000030300000001A
:1044400000000000000080601804006018060100F1
:10445000000000E010080810E000000F10202010FD
:104460000F00001010F8000000000020203F202066
:1044700000000070080808887000003028242221FD
:1044800030000030088888483000001820202011B3
:104490000E000000C02010F8000000070424243F94
:1044A000240000F80888880808000019212020113D
:1044B0000E0000E0108888180000000F1120201165
:1044C0000E0000380808C83808000000003F00004F
:1044D00000000070880808887000001C222121223A
:1044E0001C0000E010080810E0000000312222113A
:1044F0000F00000000C0C0000000000000303000CD
:10450000000000000080000000000000806000004B
:104510000000000080402010080000010204081084
:104520002000404040404040400004040404040493
:104530000400000810204080000000201008040241
:104540000100007048080808F00000000030360143
:104550000000C030C828E810E00007182724231402
:104560000B000000C038E0000000203C23020227BE
:10457000382008F8888888700000203F202020110B
:104580000E00C03008080808380007182020201046
:10459000080008F808080810E000203F202020103C
:1045A0000F0008F88888E8081000203F202023200A
:1045B000180008F88888E8081000203F2000030051
:1045C0000000C03008080838000007182020221E0C
:1045D000020008F808000008F808203F2101012126
:1045E0003F20000808F8080800000020203F202095
:1045F000000000000808F8080800C08080807F00E4
:10460000000008F888C028180800203F200126383C
:10461000200008F8080000000000203F2020202093
:10462000300008F8F800F8F80800203F003F003F8D
:10463000200008F830C00008F808203F20000718C4
:104640003F00E01008080810E0000F1020202010A4
:104650000F0008F808080808F000203F21010101B8
:104660000000E01008080810E0000F18242438505B
:104670004F0008F8888888887000203F2000030CCD
:1046800030200070880808083800003820212122D6
:104690001C00180808F8080818000000203F200037
:1046A000000008F808000008F808001F202020205B
:1046B0001F000878880000C83808000007380E017D
:1046C0000000F80800F80008F800033C0700073C69
:1046D0000300081868808068180820302C03032C19
:1046E00030200838C800C83808000000203F2000EB
:1046F000000010080808C8380800203826212020AB
:104700001800000000FE020202000000007F40408E
:104710004000000C30C0000000000000000106381E
:10472000C00000020202FE000000004040407F0086
:10473000000000000402020204000000000000006B
:104740000000000000000000000080808080808069
:104750008080000202040000000000000000000051
:1047600000000000808080800000001924222222A6
:104770003F2008F8008080000000003F1120201139
:104780000E000000008080800000000E112020201C
:104790001100000000808088F800000E1120201019
:1047A0003F200000808080800000001F2222222203
:1047B0001300008080F0888888180020203F202087
:1047C00000000000808080808000006B94949493AF
:1047D000600008F8008080800000203F2100002059
:1047E0003F2000809898000000000020203F2020FB
:1047F0000000000000809898000000C08080807F4A
:10480000000008F8000080808000203F24022D3046
:104810002000000808F8000000000020203F2020B1
:1048200000008080808080808000203F20003F202A
:10483000003F8080008080800000203F2100002019
:104840003F200000808080800000001F202020206A
:104850001F00808000808000000080FFA1202011C8
:104860000E000000008080808000000E112020A03B
:10487000FF80808080008080800020203F212000F9
:1048800001000000808080808000003324242424E4
:104890001900008080E0808000000000001F2020C0
:1048A00000008080000000808000001F2020201079
:1048B0003F20808080000080808000010E3008064C
:1048C000010080800080008080800F300C030C305D
:1048D0000F0000808000808080000020312E0E318B
:1048E0002000808080000080808080818E7018068B
:1048F000010000808080808080000021302C2221F7
:10490000300000000000807C020200000000003F38
:10491000404000000000FF00000000000000FF0019
:1049200000000002027C800000000040403F0000C8
:104930000000000601010202040400000000000063
:104940000000FF980C777801CDFFC09F10FB583E08
:10495000FD01C09F10FA583EFD01DE98FCC83A5098
:104960001D3DDE81684F05A3D13DDE819B77E200CE
:10497000C13DC09773443C5E2101C09773443C5EC7
:104980002101FF9694B4A5AD2DFF0017F3FC24116F
:10499000EC001E9198C7F98EDFCF1E9198C7F98E53
:1049A000DFCF3917EF7659B0C33CF6FE1003220E65
:1049B0002EDFF6619BB89BE2EC23F6619BB98BE29C
:1049C000EC230E9F90CB845F3CD10E0E1B841E23E4
:1049D0001110D798908BA23FFCC10809F0F3FC118D
:1049E0001E210809F0F3FC111E21E789134B400337
:1049F000D01F0F1E9FF340710EFCEFE91C4BC0034C
:104A0000DD1336601F4019F0EDE136601F4019F0EC
:104A1000EDE12F8EF3CF9FE3FDCD3E1898300222BB
:104A2000030C3FF894B7E19D3FF33FF894B7E19D45
:104A30003FF30E177C04240CFC231E9FEB74A06F25
:104A4000CD2CDE10103C3C231C2CD7F67337FC64B5
:104A50002FFFD7F67337FC6C2FFFCE69083A658CB1
:104A6000E2C030EE7403BFD11E1EF1601730244245
:104A7000C00FF16017302442C00FF098983827DF3C
:104A80002FD3FE190F309E4300C230EE7370C41155
:104A9000D23D30EE7370C411D23DDE698470FDC327
:104AA0001FCCCE908F74FC11E333E8187047A1BC83
:104AB000EC03EF9880675DC3DD32EF9880775DC3CC
:104AC000DD32EE6707B047E1C10C2190704C279FA3
:104AD0001F033811988CA3AEE0E23811988DA3AE75
:104AE000E0E2F0F9740FE1DF3FFE001193443DAFC7
:104AF000EC22FF88708CA6110D33C08603BC21EC1C
:104B0000FC23C08603BC21ECFC23DE9F0487FE133C
:104B1000FFECDE9163F0E5C2C3E1DE99777BE7DE6F
:104B200030C3DE99777BE7DE30C3C088F00CFE30FF
:104B3000E301FF86FB7A1F93F02F000000000000C6
:104B40000000000000000000000000000000000065
:104B50000000000000000000000000000000000055
:104B6000000080C0E070303818181818183070E055
:104B7000E0C0000000000000000000000000C0F8DD
:104B8000FEFF1F0701000000000000000000000001
:104B9000030FFFFEF8C000000000000000FCFFFF54
:104BA000FF03000000000000000000000000000003
:104BB000000001FFFFFFFC000000000000FFFFFFFE
:104BC000FF000000000000000000000000000000E6
:104BD000000000FFFFFFFF000000000000000F7F4B
:104BE000FFFFE08000000000000000000000000067
:104BF00000E0FEFF7F0F000000000000000000004A
:104C00000103070F1E383070606060606030381C30
:104C10001F0F030100000000000000000000000062
:104C20000000000000000000000000000000000084
:104C30000000000000000000000000000000000074
:104C40000000000000000000000000000000000064
:104C50000000000000000000000000000000000054
:104C600000808080808080C0C0E0F0F800000000FC
:104C70000000000000000000000000000000000034
:104C80000001010101010103FFFFFFFF000000001F
:104C90000000000000000000000000000000000014
:104CA0000000000000000000FFFFFFFF0000000008
:104CB00000000000000000000000000000000000F4
:104CC0000000000000000000FFFFFFFF00000000E8
:104CD00000000000000000000000000000000000D4
:104CE0000000000000000000FFFFFFFF00000000C8
:104CF00000000000000000000000000000000000B4
:104D000000606060606070787F7F7F7F7870606037
:104D10006060600000000000000000000000000073
:104D20000000000000000000000000000000000083
:104D30000000000000000000000000000000000073
:104D40000000000000000000000000000000000063
:104D50000000000000000000000000000000000053
:104D600080C0E0E070303818181818181838307003
:104D7000F0E0C08000000000000000000000F8FF2C
:104D8000FFFFF1C000000000000000000000000074
:104D90000003FFFFFFFC0000000000000000010313
:104DA000030303010000000000000000000080C0B9
:104DB000F0FE7F3F0F010000000000000000000037
:104DC0000000000000000080C0E070381C0E0703E7
:104DD0000100000000000000000000000000008052
:104DE000C0E0F0381C0E07030100000000000000C6
:104DF00000000000F0F0000000000000007C7E7F5A
:104E00007B7978787878787878787878787878781E
:104E1000787C7E7F7F000000000000000000000022
:104E20000000000000000000000000000000000082
:104E30000000000000000000000000000000000072
:104E40000000000000000000000000000000000062
:104E50000000000000000000000000000000000052
:104E600080C0603030101818181818383870F0E00A
:104E7000C080000000000000000000000000003EB4
:104E80007F7F3800000000000000000000000007E5
:104E9000FFFFFFFC00000000000000000000000019
:104EA00000000000000080808080C0C0E060783E8C
:104EB0001F0F0701000000000000000000000000BC
:104EC0000000000000000101010101030303070EBF
:104ED0001C7CF8F0C0000000000000000000E0F0C2
:104EE000F8F8F8F0000000000000000000000000EA
:104EF0000080FFFFFF7F00000000000000000107AE
:104F00000F1F1F3830706060606060606030303844
:104F10001E0F070301000000000000000000000059
:104F20000000000000000000000000000000000081
:104F30000000000000000000000000000000000071
:104F40000000000000000000000000000000000061
:104F50000000000000000000000000000000000051
:104F6000000000000000000000000000C0E0F8F8B1
:104F7000F800000000000000000000000000000039
:104F800000000000000000C0F0781E0703FFFFFFD4
:104F9000FF00000000000000000000000000000012
:104FA0000080C0F0381E07030000000000FFFFFF74
:104FB000FF000000000000000000000080C0F0388A
:104FC0001E070100000000000000000000FFFFFFBE
:104FD000FF000000000000000000000003030303C6
:104FE00003030303030303030303030303FFFFFF9D
:104FF000FF0303030303030300000000000000009D
:10500000000000000000606060606060707F7F7F73
:105010007F706060606060000000000000000000C1
:105020000000000000000000000000000000000080
:105030000000000000000000000000000000000070
:105040000000000000000000000000000000000060
:105050000000000000000000000000000000000050
:1050600000F8F87878787878787878787878787838
:105070007878787838000000000000000000000018
:1050800000FF7F00000000000000000000000000A2
:105090000000000000000000000000000000000010
:1050A000FEFF80E0703838181C1C1C1C1C3C3C782F
:1050B000F8F0E0C000000000000000000000000068
:1050C00003030300000000000000000000000000D7
:1050D000010FFFFFFFF80000000000000000F0F8E3
:1050E000FCFCFC7800000000000000000000000054
:1050F00000C0FFFFFF1F00000000000000000103D0
:10510000070F1F3830306060606060606030383C8E
:105110001E0F070300000000000000000000000058
:10512000000000000000000000000000000000007F
:10513000000000000000000000000000000000006F
:10514000000000000000000000000000000000005F
:10515000000000000000000000000000000000004F
:1051600000000080C0E06030301818181818183897
:10517000F0F0E0C08000000000000000000080F0BF
:10518000FCFE0F0301000000000000000000000012
:10519000070F0F0F070000000000000000F0FFFFE6
:1051A000FF0180C0E0E070703838383838387870E7
:1051B000F0F0E0C0800000000000000000FFFFFFF2
:1051C000FF1E0703010000000000000000000000B7
:1051D00000030FFFFFFEF0000000000000033FFF90
:1051E000FFF8800000000000000000000000000048
:1051F0000000C0FFFFFF1F000000000000000000D3
:1052000003070F1F3C3830706060606060603030B2
:10521000381E0F070300000000000000000000001F
:10522000000000000000000000000000000000007E
:10523000000000000000000000000000000000006E
:10524000000000000000000000000000000000005E
:10525000000000000000000000000000000000F05E
:10526000F8F8F8F8787878787878787878787878BE
:105270007878F8F878380000000000000000383F27
:10528000070100000000000000000000000080E0B6
:10529000781E070100000000000000000000000070
:1052A0000000000000000000000080E0FC7F0F0113
:1052B00000000000000000000000000000000000EE
:1052C00000000000000000C0F8FEFF1F0300000007
:1052D00000000000000000000000000000000000CE
:1052E0000000000000C0FEFFFFFFFF000000000004
:1052F00000000000000000000000000000000000AE
:1053000000000000003F7F7F7F7F3F000000000023
:10531000000000000000000000000000000000008D
:10532000000000000000000000000000000000007D
:10533000000000000000000000000000000000006D
:10534000000000000000000000000000000000005D
:10535000000000000000000000000000000000004D
:1053600080C0E0F0703038181818181818383070ED
:10537000F0E0C08000000000000000000000FCFF22
:10538000FFFF83000000000000000000000000009C
:105390000003FFFFFFFC0000000000000000010709
:1053A0000F1F3F7E7CF8F0F0E0E0C0C080C060706E
:1053B000381E1F0F03000000000000000000C0F0B6
:1053C000F8FC3E0E07030101010303070F1F1F3EF8
:1053D000FEFCF8F0C000000000000000007FFFFFAE
:1053E000FF8000000000000000000000000000003E
:1053F0000003FFFFFF7F0000000000000000010726
:105400000F0F1E3838307060606060606070303838
:105410001C1F0F070100000000000000000000003A
:10542000000000000000000000000000000000007C
:10543000000000000000000000000000000000006C
:10544000000000000000000000000000000000005C
:10545000000000000000000000000000000000004C
:1054600080C0E0F07038181818181818383070E03C
:10547000C0800000000000000000000000E0FCFF11
:10548000FF0F01000000000000000000000000000D
:10549000031FFFFCF000000000000000007FFFFF82
:1054A000FFC000000000000000000000000000003D
:1054B00080E0FFFFFFFF0000000000000000030786
:1054C0000F1F3F3C7878707070707038381C1E0F5A
:1054D00003C0FFFFFF3F000000000000000000804D
:1054E000C0C0C0800000000000000000000000C03C
:1054F000F8FF7F1F0300000000000000000000070D
:105500001F3F3F3F7060606060603030381C0F07A5
:105510000301000000000000000000000000000087
:10552000000000000000000000000000000000007B
:1055300000000000000000000000DDDDDDDDDCBB60
:10554000BBDDDDDDDDDDDDDDDDDD9888888888889B
:1055500088887777777777888888855555566666FF
:10556000666666666666666888888333333222229A
:105570002222222222222228888D00009C55000807
:105580000000002058000000B82A0008F455000868
:1055900058000020E02A0000C82A0008000000008F
:1055A00000000000000000000000000000000000FB
:1055B00000000000000000000000000000000000EB
:1055C00000000000000000000000000000000000DB
:1055D000000000000200000000A24A0401000000D8
:1055E00010000000000000000000000000000000AB
:0455F00000000000B7
:04000005080000ED02
:00000001FF
