:020000040800F2
:10000000A00D00200101000879290008A925000899
:10001000F1280008450A00080D3200080000000021
:10002000000000000000000000000000EF2C0008AD
:100030008B0A000800000000ED2C0008F12C0008DD
:100040001B0100081B0100081B0100081B01000820
:100050001B0100081B0100081B0100081B01000810
:100060001B0100081B0100081B0100081B01000800
:10007000490A00081B010008550A00081B01000876
:100080001B0100081B0100081B0100081B010008E0
:100090001B0100081B0100081B0100081B010008D0
:1000A0001B0100081B0100081B0100081B010008C0
:1000B000712D00081B0100087D2D00081B010008A0
:1000C0001B0100081B0100081B0100081B010008A0
:1000D0001B0100082D3100081B01000879310008C0
:1000E0001B0100081B0100081B010008DFF80CD0F1
:1000F00000F052FA00480047ED350008A00D00203E
:100100000648804706480047FEE7FEE7FEE7FEE7B1
:10011000FEE7FEE7FEE7FEE7FEE7FEE76D2D0008DF
:10012000ED000008202A04DB203A21FA02F0002129
:10013000704721FA02F3D040C2F1200291400843F7
:1001400019467047D2B201E000F8012B491EFBD2DC
:1001500070470022F6E710B513460A4604461946D2
:10016000FFF7F0FF204610BD421C10F8011B0029CC
:10017000FBD1801A704700000FB400B58DB010A9F4
:1001800009900B9000914FF0FF300A9000200C90E6
:1001900005480690054807906A4609A80F9900F09F
:1001A0006FF90DB05DF814FB9D040008BB04000856
:1001B0002DE9FF5F1D464FF0FF3BD5E90146914613
:1001C0005F464FF00008A9697F1C01988847296A9B
:1001D000824688470028F6D1BAF1FF3F0CD024F4BC
:1001E000C064002E19DD600614D5BAF12B0F09D0BA
:1001F000BAF12D0F0ED103E0584604B0BDE8F09FD0
:1002000044F48064A9697F1C01988847761E824661
:10021000002E02DDBAF1300F03D0B9F1000F26D065
:1002200032E0A969761E44F400747F1C0198884767
:100230008246002E05DDBAF1780F06D0BAF1580FCC
:1002400003D0B9F1000F10D01EE0B9F1000F02D0B9
:10025000B9F1100F18D1A969761E24F400747F1C1F
:10026000019888478246102002E0082000E00A201A
:10027000814609E008FB0908A969761E44F4007468
:100280007F1C019888478246002E05DD494650466E
:1002900000F0E2F80028EDDAE96901988847A00546
:1002A00002D46FF00100A8E7E00725D1600613D55E
:1002B000600502D5C8F1000000E0404629680A1D2B
:1002C0002A600968220501D5087015E0220701D5CA
:1002D000088011E008600FE02868011D29600068AF
:1002E000210502D580F8008006E0210702D5A0F89C
:1002F000008001E0C0F8008038467EE72DE9FE4F1F
:1003000081EA030404F0004421F0004100944FF01E
:10031000000B23F0004350EA01045ED052EA0304CC
:100320005BD0C3F30A54C1F30A552C44A4F2F3344E
:100330000194A0FB0254C1F3130141F48011C3F3F3
:10034000130343F4801301FB024400FB034E840AB1
:10035000970A44EA815447EA8357A4FB0768029549
:100360008D0A05FB07854FEA932C04FB0C542705E7
:10037000029D4FEA065847EA1637B5EB08056EEBC3
:10038000070C870E920E47EA811742EA8312A7FBF9
:100390000201B6EB0B0164EB00042B0D43EA0C33B6
:1003A0005E1844EB1C50DA465146E7FB0201C5F3E8
:1003B00013044FEA0B3343EA14534FEA0432019C0F
:1003C00043EA0603A4F10C040294009CCDE900B4B6
:1003D00000F093F803B0BDE8F08F00200146F9E784
:1003E0000EB540F2334102910021CDE900110A46D9
:1003F0000B4600F082F803B000BDC1F30A5210B5FD
:10040000C1F3130140F2FF3341F480119A4201DA43
:10041000002010BD40F233439A42A2F2334203DC83
:100420005242FFF77FFE10BD904010BD30B50B4625
:10043000014600202022012409E021FA02F59D4214
:1004400005D303FA02F5491B04FA02F52844151EE8
:10045000A2F10102F1DC30BD3A2800D2303820F0A0
:100460002002412A01D3A2F13700884201D34FF084
:10047000FF307047026811441378016018467047D6
:10048000D160044951610449116200211161114692
:1004900000F0A8B875040008DB050008426842B106
:1004A000016811F8013B23B1521EC0E90012184641
:1004B00070470121C160881E704742685AB1C36805
:1004C000016843B983688B4205D0491E521CC0E9BC
:1004D0000012002070474FF0FF30704710B5141E17
:1004E00073F1000408DA401C41F1000192185B41ED
:1004F0001A4301D120F0010010BD2DE9F04D9246C4
:100500009B4611B1B1FA81F202E0B0FA80F22032DA
:10051000904600F053F804460F4640EA0A0041EACC
:100520000B0153465A46084313D0114653EA0100C3
:1005300019D0C8F140025046FFF7F4FD05460E46BB
:1005400050465946424600F039F8084305D001208C
:1005500004E020463946BDE8F08D0020054346EA18
:10056000E0762C4337430A986305E40AA0EB0800C1
:100570000022FD0A44EA47540A3002D50020014611
:10058000E9E7010510196941DDE9084500196941EC
:10059000BDE8F04DA2E70000064C074D06E0E0681C
:1005A00040F0010394E8070098471034AC42F6D3BA
:1005B000FFF7A0FDEC4B00080C4C0008202A04DBE0
:1005C000203A00FA02F1002070479140C2F1200366
:1005D00020FA03F3194390407047C0B24FF4F05132
:1005E00000F096B92DE9F34F8BB04FF0000801F100
:1005F0000C000C464FF0010B46460DF1080A019025
:100600006269012101989047051E2DD0252D2CD01F
:10061000216A8847C0B16269012101989047216A27
:1006200088470028F7D1411E62690198904700E091
:10063000761CA1690B988847216A88470028F7D162
:10064000E1690B988847DBE7A1690B988847074663
:10065000A84201D1761CD3E7E1690B9888477F1C3B
:1006600002D1B8F1000F6FD046E1002762693D4624
:100670003946019890472A2804D1626901210198DE
:1006800090470125DFF88492626901210198904723
:10069000A0F130010A290AD24F45E5DC07EB8701BA
:1006A00000EB4107303FDFD445F01005ECE7E906E9
:1006B00001D46FF000476C280AD04C2814D0682869
:1006C00015D06A280DD074281CD07A281AD01DE0C5
:1006D00062690121019890476C2802D045F0040519
:1006E00014E045F002050DE045F020050AE06269DE
:1006F000012101989047682802D045F0080505E0DF
:1007000045F400656269012101989047C4E90157E9
:1007100065283DD019DC58287AD00CDC452837D024
:1007200004DC252826D0412831D131E046282FD0BD
:1007300047282CD12CE05B2877D0612828D063286B
:100740007CD0642823D15AE0D0E06F2848D008DC60
:1007500066281DD067281BD0692821D06E2816D1A5
:1007600027E0702845D0732868D0752847D07828AE
:100770000DD14DE0A1690B988847054625283FF427
:1007800069AFE1690B9888476D1C3FF46AAFB3E02D
:1007900023466A466FF001000B99AFF300809EE09C
:1007A00045F040006060A80723464FF0000236D4B1
:1007B0003EE0E8077FF447AF2068011D2160006834
:1007C000290501D506701BE7290701D5068017E723
:1007D000A90703D5F117C0E9006111E706600FE72B
:1007E00045F040006060A80723464FF0080216D489
:1007F0001EE040F60E0125EA0100606016E045F0BB
:1008000040006060A80723464FF00A0207D40FE0BB
:1008100045F040006060A80708D5234610226FF01D
:1008200001000B99AFF3008059E007E02346102246
:100830006FF001000B99FFF7BBFC50E04FF000098F
:100840004F464B46632802D05B2806D040E0E806BE
:1008500001D40120A06001273AE0626901210198DA
:1008600090475E2805D14FF0010962694946019819
:100870009047216939B900210A46534643F821209F
:10088000491C0829FADBB0B3216969B9C11700EB2B
:10089000D16253110AEB830122F01F02821A012058
:1008A0000B68904003430B606269012101989047F7
:1008B0005D28E8D1B9F1000F09D00020514651F868
:1008C0002020D24341F82020401C0828F7DB02AB4F
:1008D000224600976FF001000B99AFF300800028CB
:1008E0000CDA401C08D1BBF1000F05D04FF0FF30EF
:1008F0000DB0BDE8F08FFFE74046F9E7E90701D109
:1009000008F1010806444FF0000B79E6CCCCCC0C82
:100910007F2801D9002208E0064A02EB5002C007F6
:10092000127800D1120902F00F0201209040084015
:1009300070470000764B000870B504460068816877
:10094000C943C90717D1816821F00101816000F016
:10095000FBFD05460AE000BF00F0F6FD401B022843
:1009600004D920688068C043C00706D0206880682A
:10097000C043C007F0D0002070BDA06A40F0100056
:10098000A062E06A40F00100E062012070BD00005A
:10099000F8B500260446009600688168C943C90777
:1009A0002DD0816841F00101816016481649006828
:1009B000B0FBF1F000E0401E00900028FBD100F0F9
:1009C000C3FD054616E000BF00F0BEFD401B022837
:1009D00010D920688068C043C0070BD0A06A40F0DF
:1009E0001000A062E06A40F00100E06284F8246038
:1009F0000120F8BD20688068C043C007E4D1002012
:100A0000F8BD00004800002040420F000EB56946C6
:100A100000900120019005200290094800F0CEF8D6
:100A200008B172B6FEE7064800F0A2FA4FF0FF31B7
:100A3000034800F0FFF9024800F03EF980B20EBD15
:100A4000C8060020FEE70000014800F061BB00007E
:100A50005C080020014800F05BBB00001808002083
:100A600030B590F840500124AC40C56B6C60046810
:100A700063604368102B036803D099600068C2600C
:100A800030BD9A600068C16030BD704710B52FA2BC
:100A900000211C2002F0AAF82E4C2FA13048A28879
:100AA00002F0B6FB2E4A00214B2002F007F92DA2DE
:100AB0000221002002F09AF8E2882CA1284802F0D6
:100AC000A7FB274A0221202002F0F8F82078F8B18D
:100AD00028A20421002002F089F8628928A1204878
:100AE00002F096FB1E4A0421422002F0E7F826A2FB
:100AF0000621002002F07AF8E28921A1184802F0CC
:100B000087FB174A06214220BDE8104002F0D6B804
:100B100020A20421002002F069F822891FA11048B8
:100B200002F076FB0E4A0421202002F0C7F81EA234
:100B30000621002002F05AF8A2891DA1084802F0FF
:100B400067FB0621064A2020DEE70000D6D5B6CB9B
:100B5000000000000000002049443A256400000025
:100B6000B4020020CEC2B6C8000000003A202564BE
:100B700020432000B9E2D5D5C7BFB6C800000000A9
:100B800025346470706D0000BFD5C6F8D6CAC1BFE9
:100B900000000000CAAAB6C8000000003A20256480
:100BA0002025252000000000D1CCCEED0000000063
:100BB0003A25346470706D0072B6FEE7F8B5002413
:100BC000009490F824202546012A12D0012280F8B2
:100BD00024204A681F23072A0DD20668776B521E0D
:100BE00002EB820293409F430B6893401F4377635D
:100BF00019E00220F8BD06680D2A0AD2376BD21F11
:100C000002EB820293409F430B6893401F4337637C
:100C100009E0F76A0D3A02EB820293409F430B68AA
:100C200093401F43F7620A68072306680A2A0AD31B
:100C3000F7680A3A02EB420293409F438B68934065
:100C40001F43F76008E0376902EB420293409F437D
:100C50008B6893401F4337610A68102A01D0112A1C
:100C600020D1124B02689A4217D193681B0219D403
:100C7000936843F4000393600968102912D10C496A
:100C80000C4A0968B1FBF2F101EB8101490000E077
:100C9000491E00910029FBD104E0816A41F0200146
:100CA0008162012480F824502046F8BD00240140D0
:100CB0004800002040420F000068C06C70470000F0
:100CC0002DE9F0414FF0000704003D467ED0A06AB8
:100CD000002628B9E66284F82460204600F07EF8F9
:100CE0002046FFF729FEA16AC90600D420B1A06AF8
:100CF00040F01000A06269E0A16A21F4885141F03F
:100D00000201A1626268E169237B0A4347EA430169
:100D10000A43A1684FF48077B94209D0012907D06E
:100D20005FF0000194F814C0BCF1010F02D00AE09A
:100D30003946F7E7F3B1A36A43F02003A362E36AFD
:100D400043F00103E3622368D3F804C02CF4694C38
:100D50004CEA010CC3F804C021688B68DFF870C04E
:100D600003EA0C0313438B60A168B9420BD001293D
:100D700009D00CE0DFF85CC0A3690CEB43330B43F4
:100D800043F40061DFE7218A0D05A5F58015216890
:100D9000CB6A23F470032B43CB62216889680E4B26
:100DA0001940914208D1E662A16A21F0020141F0A6
:100DB0000101A162BDE8F081A06A20F0020040F0CC
:100DC0001000A062E06A40F00100E0620120F1E75B
:100DD000FDF7E1FF00E0FFFFFE0E1FFF00B585B04D
:100DE0000021009101910291039100680E4988420F
:100DF00018D10E48816941F400718161816901F463
:100E000000710491816941F0040181618069694642
:100E100000F004000490702000900320019004482A
:100E200000F098FA05B000BD002401400010024017
:100E3000000801402DE9F84300270D4604460097BD
:100E400000F082FB804620688168C90508D5A06A49
:100E500040F02000A06284F824700120BDE8F883EF
:100E60004168C90503D4C06A10F4700F2AD002206B
:100E700000F008FC3B490968B1FBF0F62068036903
:100E800039490B424FEA61014FEAA1121FD1C368F1
:100E90004FEA611C13EA0C0F19D103690B4225D1EB
:100EA000C068104222D1142023E0681C0AD02DB162
:100EB00000F04AFBA0EB0800A84203D920680068B4
:100EC000800725D5206800688007EED52DE00369EE
:100ED0000B4202D1C168114206D0026923490A427D
:100EE00006D1C068084203D1542002E0292000E066
:100EF000FC204643009816E0681C11D02DB100F08C
:100F000023FBA0EB0800A8420AD90098B04207D200
:100F1000A06A40F00400A06284F8247003209DE7DA
:100F20000098401C0090B042E6D321686FF0120098
:100F30000860A06A40F40070A06220688068C0F376
:100F4000424007280CD1207B50B9A06A20F4807061
:100F5000A062A06AC00403D4A06A40F00100A062AD
:100F600000207BE748000020244992244992240075
:100F700070B5044690F8240001280DD0012084F8B3
:100F800024002046FFF704FD02004FF0000005D0CA
:100F900084F82400104670BD022070BDA16A40F2A2
:100FA0000123994341F48071A1621F4D23681F49B9
:100FB000AB4218D10E6816F4702F14D0A66A46F40E
:100FC0008016A6620E68760505D5A66A26F4005638
:100FD00046F48056A662A66AF6040AD5E66A26F0AA
:100FE0000606E66206E0A66A26F48016A6625E6839
:100FF000E9E7E06284F824006FF0020018602068DE
:101000008368C3F34243072B05D1A84208D109687E
:1010100011F4702F04D0816841F480118160B9E728
:10102000816841F4A001F9E700280140042401404F
:1010300010B590F821100022022905D00421816307
:1010400080F82020012010BD01680B6823F00E03FA
:101050000B6001680B6823F001030B6090F84030CF
:10106000C46B012101FA03F3636080F8211080F85A
:101070002020104610BD000010B590F8211000246B
:10108000022903D00421816301243DE001680A683C
:1010900022F00E020A6001680A6822F001020A606A
:1010A0001A4A0168914201D1012121E0174A143204
:1010B000914201D110211BE0144A2832914201D102
:1010C000891515E0114A3C32914201D189140FE093
:1010D0000E4A5032914202D14FF4803108E00B4A5F
:1010E0006432914202D14FF4801101E04FF08071DF
:1010F000064A083A5160012180F82110002180F849
:101100002010416B01B18847204610BD0800024005
:101110002DE9F05FC16B0C6801680B68D0F840C026
:10112000042202FA0CF2494DDFF824A1494E4A4F3D
:10113000DFF828B1DFF828E122422CD05A072AD55F
:101140000A68920603D40A6822F004020A60016861
:10115000A94201D1042219E0514501D1402215E0F4
:10116000B14202D14FF4806210E0B94202D14FF493
:1011700080420BE0594502D14FF4802206E07145D0
:1011800002D14FF4800201E04FF080622F4908390C
:101190004A60C16A3BE04FF0020808FA0CF818EA0E
:1011A000040F4FF000094FF0010235D05FEA837859
:1011B00032D50B689B0605D40B6823F00A030B603D
:1011C00080F821200168A94201D1022219E051458D
:1011D00001D1202215E0B14202D14FF4007210E09B
:1011E000B94202D14FF400520BE0594502D14FF4FD
:1011F000003206E0714502D14FF4001201E04FF0D9
:101200000072124908394A6080F82090816A0029EA
:101210001AD0BDE8F05F0847082505FA0CF525420D
:1012200012D01B0710D50B6823F00E030B6090F84B
:101230004010C36B02FA01F15960826380F82120EB
:1012400080F82090016BE2E7BDE8F09F08000240C3
:101250001C0002403000024044000240580002409E
:101260006C00024030B528B308C813491422194451
:10127000B1FBF2F18900C16310498163022141771A
:101280001A6843F6F0718A43D0E900142143D0E98B
:1012900002452C4321430469214344692143846965
:1012A00021431143196000214163012242770177F4
:1012B000084630BD012030BDF8FFFDBF00000240F0
:1012C00070B5044690F82000002501280CD00120BC
:1012D00084F8200094F821600020012E06D084F8C4
:1012E00020000225284670BD022070BD022684F829
:1012F0002160A0632068066826F00106066020468B
:10130000FFF7AEFBE06A00282068016802D041F0D8
:101310000E0106E021F0040101602068016841F03F
:101320000A0101602068016841F001010160D9E70C
:1013300070B5044600F008F90546601C02D0044868
:101340000078044400F000F9401BA042FAD370BDBD
:101350003C0000202DE9F84FDFF8B8910024A9F1F6
:10136000040B23460F2709F1040AABF1040EC9E070
:101370000125A5402A40AA427DD1674ED1F804C07C
:10138000ACEB0608B44532D014DCBCF1030F3AD004
:1013900009DCBCF1000F2AD0BCF1010F1CD0BCF15C
:1013A000020F31D11DE0BCF1110F17D0BCF1120FAB
:1013B0002AD119E0B8F5881F19D006DCB8F5803FAE
:1013C00015D0B8F5801F1FD111E0B8F5001F0ED061
:1013D000B8F5041F18D10AE0CB6815E0CB681B1DD7
:1013E00012E0CB6808330FE0CB680C330CE08B685D
:1013F0002BB1012B4FF0080303D0456104E0042317
:1014000002E0056100E00023FF2A01D8064601E062
:1014100000F104064FEA840501D9A5F12005D6F8AC
:10142000008007FA05FC28EA0C0803FA05F548EAEB
:101430000508C6F800804D68ED0062D5374DAE69ED
:1014400046F00106AE61AD6924F0030605F0010522
:101450000095334D06EB050CDCF80850A607360F57
:1014600007FA06F825EA0805DFF8B880404503D1F9
:101470004FF0000817E044E0DFF8AC80404502D1AF
:101480004FF001080FE0DFF8A480404502D14FF093
:10149000020808E0DFF89880404502D14FF00308C9
:1014A00001E04FF0040808FA06F848EA0508CCF80D
:1014B00008804D68D9F80060ED024D4601D516430D
:1014C00000E096432E604D68DAF80060AD025546A4
:1014D00001D5164300E096432E604D68DBF80060AE
:1014E000AD035D4601D5164300E096432E604D687E
:1014F000DEF80060ED03754601D5164300E0964323
:101500002E60641C0D682A46E5407FF431AFBDE8CB
:10151000F88F000008040140000011100010024084
:101520000000014000080140000C01400010014093
:10153000001401408068084000D0012070470AB1C3
:10154000016170470904FBE70148806870470000AB
:101550003C00002002488168027811448160704795
:101560003C000020074810B5016841F010010160FF
:10157000032000F075F80F2000F006F800F024F8C2
:10158000002010BD0020024070B50D4D04464FF400
:101590007A712878B1FBF0F00A490968B1FBF0F0E4
:1015A00000F0A4FB48B9102C07D200222146501E9F
:1015B00000F036F800206C6070BD012070BD0000A6
:1015C0003C000020480000200C4808B5816941F02B
:1015D00001018161816901F001010091C16941F05E
:1015E0008051C161C06900F080500090044841689A
:1015F00021F0E06141F00071416008BD001002403F
:1016000000000140002809DB00F01F020121914089
:101610004009800000F1E020C0F800117047000090
:10162000F0B40E4B1B680C46C3F30223C3F107054D
:10163000042D00D90425191D072901D2002300E03B
:10164000DB1E012606FA05F1491E214099409E4005
:10165000761E16403143F0BC01F0EEBD0CED00E00B
:10166000064900F0070208684FF6FF03184040EAF9
:101670000220034A10430860704700000CED00E0B0
:101680000000FA0510B501460020234C012922D0A4
:10169000022939D010291DD161682268D20119D5DB
:1016A0001E48C1F38342C903805C0AD561681B4AA6
:1016B000C1F34041921E515C194AB2FBF1F148431B
:1016C00001E0184948436168490203D440000321FE
:1016D000B0FBF1F010BD226AC2F30121012903D150
:1016E000920701D5C80310BD022905D1626A92078D
:1016F00002D549F6404010BD0329FCD12168890379
:10170000F9D54FF2244010BD00F02AF96168C1F309
:101710008131491C4900DBE70010024068370008AE
:1017200000127A0000093D002DE9F84305460078D3
:10173000354CC00754D0E0690026C00008D4E069E9
:1017400040F08050E061E069012600F08050009098
:101750002E480168C90512D40168804641F48071A1
:101760000160FFF7F1FE074605E000BFFFF7ECFE62
:10177000C01B642823D8D8F80000C005F6D5206A1D
:1017800010F4407021D0A98801F4407181421CD02E
:10179000206A1F49012220F440700A6000220A607A
:1017A0002062C00711D0FFF7CFFE074641F288380C
:1017B00008E000BFFFF7C8FEC11B414502D9032066
:1017C000BDE8F883206A8007F4D5206A696820F4B0
:1017D0004070084320621EB1E06920F08050E06153
:1017E0002878800705D56068A96820F44040084340
:1017F00060602878C00605D56068E96820F480003C
:10180000084360600020DBE70010024000700040E9
:10181000400442422DE9F0470F46050061D0434E97
:10182000306800F00700B84209D2306820F00700A5
:1018300038433060306800F00700B84251D1286862
:101840003B4C810712D5400703D5606840F4E06047
:1018500060602878000703D5606840F460506060DD
:101860006068A96820F0F000084360602878C0072D
:1018700028D06868012810D02168022810D0890774
:1018800000292EDA616821F0030101436160FFF74E
:101890005BFE804641F288390DE021688903EFE75D
:1018A0008901EDE7FFF750FEA0EB0801494502D999
:1018B0000320BDE8F0876068696800F00C00B0EBB9
:1018C000810FEFD1306800F00700B8420BD93068C3
:1018D00020F0070038433060306800F00700B8425D
:1018E00001D00120E5E72878400705D56068E96860
:1018F00020F4E060084360602878000706D560683F
:10190000296920F4605040EAC100606000F038F8B6
:101910006168084AC1F30311515CC8400649086078
:1019200006480068FFF730FE0020C2E700200240B2
:1019300000100240783700084800002040000020D6
:101940000448054900684968044AC1F30221515C12
:10195000C840704748000020001002408837000847
:101960000448054900684968044AC1F3C221515C32
:10197000C840704748000020001002408837000827
:101980000E4A51680E4801F00C03042B11D0082BAD
:101990000FD10C48C1F38343C903C05C0AD5516819
:1019A000084AC1F34041921E515C054A5043B0FBC6
:1019B000F1F07047044948437047000000100240AE
:1019C00000127A005637000800093D002DE9F84F53
:1019D000040070D02078C04DC00749D06868C0F3BB
:1019E0008100012807D06868C0F38100022809D16E
:1019F0006868C00306D52868800339D56068002868
:101A0000E7D035E06068B0F5803F0BD010B1B0F59D
:101A1000A02F11D0286820F480302860286820F496
:101A2000802002E0286840F480302860606890B12F
:101A3000FFF78AFD06460AE0286840F48020286007
:101A4000F0E700BFFFF780FD801B642873D828688B
:101A50008003F7D50CE0FFF777FD064605E000BFF1
:101A6000FFF772FD801B6428F0D828688003F7D444
:101A700020789A4E80074FF001094FF0000839D5C1
:101A8000686810F00C0F07D06868C0F38100022866
:101A900009D16868C00306D42868800714D5206976
:101AA000012808D110E02069B0B1C6F80090FFF716
:101AB0004BFD074605E00AE1FFF746FDC01B022883
:101AC000C4D828688007F7D52868616920F0F80035
:101AD00040EAC10028600DE0C6F80080FFF734FD41
:101AE000074604E0FFF730FDC01B022823D8286812
:101AF0008007F7D4207800072CD57948A169D9B19F
:101B0000C0F80090FFF720FD074604E0FFF71CFD3A
:101B1000C01B02280FD8686A8007F7D571484FF4B8
:101B2000FA510068B0FBF1F0009000BF0098411E30
:101B30000091FAD20EE080E0C0F80080FFF704FDCB
:101B4000074604E0FFF700FDC01B022875D8686A4D
:101B50008007F7D42078400760D5E8690027C000E7
:101B600008D4E86940F08050E861E869012700F096
:101B7000805000905C480168C90513D40168834611
:101B800041F480710160FFF7DFFC824606E000BF90
:101B9000FFF7DAFCA0EB0A0064284ED8DBF800005F
:101BA000C005F5D5E06801280AD008B1052813D092
:101BB000286A20F001002862286A20F0040002E070
:101BC000286A40F001002862E06841F2883B98B141
:101BD000FFF7BAFC82460BE0286A40F00400286256
:101BE000EEE700BFFFF7B0FCA0EB0A0159455AD859
:101BF000286A8007F6D50CE0FFF7A6FC824605E0D0
:101C0000FFF7A2FCA0EB0A0159454CD8286A8007CF
:101C1000F6D41FB1E86920F08050E861E06988B32C
:101C20006968C1F38101022944D00228C6F86080A6
:101C300004D0FFF789FC044638E034E0FFF784FC69
:101C4000074604E0FFF780FCC01B02282BD8286859
:101C50008001F7D4206AB0F5803F05D16868A1689B
:101C600020F4003008436860D4E90801084369683B
:101C700021F4741108436860C6F86090FFF764FCB3
:101C8000044606E025E000BFFFF75EFC001B0228CB
:101C900009D828688001F7D51BE000BFFFF754FC86
:101CA000001B022802D90320BDE8F88F28688001B4
:101CB000F4D40EE00128F7D06868226A00F480317D
:101CC000914204D1616A00F47010884201D0012071
:101CD000EAE70020E8E7000000100240000042426E
:101CE00080044242480000200070004010B5401EB1
:101CF000B0F1807F01D3012010BD4FF0E02460617E
:101D00000F21601701F098FA0020A06107202061E0
:101D1000002010BD7047704770B590F83C20012A34
:101D200026D0012480F83C40022280F83D20036840
:101D30005A689D6822F070060A6832435A600D4B5B
:101D400002689A4208D0B2F1804F05D00A4B9A42FD
:101D500002D00A4B9A4204D1496825F08003194306
:101D6000916080F83D40002180F83C10084670BD2D
:101D7000022070BD002C014000040040000800401B
:101D800010B5040003D094F83D0010B107E0012025
:101D900010BD002084F83C00204600F01FF802200F
:101DA00084F83D00211D206800F0EEFF012084F83A
:101DB000460084F83E0084F83F0084F8400084F830
:101DC000410084F8420084F8430084F8440084F819
:101DD000450084F83D00002010BD000008B50168F2
:101DE0001448B1F1804F14D0134A914220D1C169F7
:101DF00041F00401C161C069002200F004000090BC
:101E000011461E20FFF70CFC1E20BDE80840FFF71E
:101E1000F9BBC16941F00101C161C069002200F054
:101E20000100009011461C20FFF7FAFB1C20ECE794
:101E300008BD0000001002400008004090F83D106E
:101E4000012901D001207047022180F83D1001686E
:101E5000CA6842F00102CA6000680B49884208D093
:101E6000B0F1804F05D00949884202D00849884224
:101E700004D1816801F00701062903D0016841F00F
:101E80000101016000207047002C01400004004067
:101E90000008004070B5044690F83C000025012879
:101EA00017D0012684F83C60022084F83D002068A9
:101EB000826822F0770222F47F428260086850280C
:101EC00038D00DDC20284FD005DC90B3102811D17C
:101ED0004AE0022070BD302846D040280AD13BE0BD
:101EE00060282FD070280DD0B0F5805F03D0B0F5FA
:101EF000005F12D0012584F83D60002084F83C008A
:101F0000284670BDCB68D1E90121206800F078FF38
:101F10002068816841F0770109E0CB68D1E90121AF
:101F2000206800F06DFF2068816841F48041816085
:101F3000E1E719E0CA684968206800F073FF5021A2
:101F4000206806E0CA684968206800F07CFF6021CC
:101F5000206800F05FFFCEE7CA684968206800F09B
:101F600061FF40212068F4E7226801461046F0E74F
:101F700070472DE9F04104460068C66805694FF0D6
:101F80000007A90713D5B10711D5F91E016101207A
:101F90002077206880698007204602D0FFF7E8FF9D
:101FA00004E000F07EF8204600F07CF82777680710
:101FB00016D5700714D521686FF00400086102205F
:101FC00020772068806910F4407F204602D0FFF718
:101FD000CFFF04E000F065F8204600F063F82777B3
:101FE000280715D5300713D521686FF00800086160
:101FF000042020772068C0698007204602D0FFF7C0
:10200000B7FF04E000F04DF8204600F04BF82777CA
:10201000E80616D5F00614D521686FF010000861A7
:10202000082020772068C06910F4407F204602D045
:10203000FFF79EFF04E000F034F8204600F032F88D
:102040002777E80708D0F00706D021686FF0010075
:102050000861204600F028F8280608D5300606D585
:1020600021686FF0800008612046FFF753FE680684
:1020700008D5700606D521686FF04000086120463B
:1020800000F038F8A8060AD5B00608D521686FF028
:10209000200008612046BDE8F041FFF73CBEBDE8E6
:1020A000F0817047704700000068B0F1804F15D094
:1020B0000D49884216D10D484178002912D0D0F838
:1020C0006012491CC0F8601223290BD30021417013
:1020D0000122C270C0F8601200F00CBC04494888AC
:1020E000401C48807047000000080040500000205D
:1020F000000000207047704770470000F8B5016885
:1021000004460868CA684B6910F00F0F4FF00005CD
:1021100059D003F0010602F49077374365D0C10728
:1021200005D0D10503D5616C41F00101616441071F
:1021300005D5D90703D0616C41F0020161648107C4
:1021400005D5D90703D0616C41F004016164010732
:1021500007D502F02001314303D0616C41F0080142
:102160006164616C00293AD0800604D5900602D5DE
:10217000204600F002FF20684069616CC0F38010C7
:10218000090700D460B3204600F0C2FE2068406911
:10219000400621D52068143050E8001F21F040018E
:1021A00040E80012002AF5D1E06BA8B16D49416307
:1021B000E06BFEF761FF002811D0E06B416B01B0CE
:1021C000BDE8F040084783060FD593060DD520469D
:1021D000BDE8F84000F0D1BE2046FFF78DFFF8BD06
:1021E0002046FFF789FF6564F8BD266B2023012E8A
:1021F0007CD1C6067AD5D60678D50868486800909E
:1022000048694FF00206400640D5E16B0868406817
:102210000004000CE8D0A28D8242E5D9E0858869EF
:1022200020282DD020680C3050E8001F21F4807148
:1022300040E80012002AF5D12068143050E8001F51
:1022400021F0010140E80012002AF5D12068143085
:1022500050E8001F21F0400140E80012002AF5D1AB
:1022600084F84230256320680C3050E8001F21F0CC
:10227000100140E80012002AF5D1E06BFEF7D8FE0D
:102280006663A08DE18D401A81B22AE0A08DE18DB8
:10229000401A81B2E08D0028A6D00029A4D022687F
:1022A0000C3252E8000F20F4907042E80007002F33
:1022B000F5D12068143050E8002F22F0010240E8E8
:1022C0000027002FF5D184F84230256320680C30B8
:1022D00050E8002F22F0100240E80023002BF5D137
:1022E00066632046FFF707FFF8BDFFE705062BD51D
:1022F000150629D594F841002128F5D1A068B0F53C
:10230000805F01D12069B0B1206A411C216221683F
:1023100000784860E08C401E0004000CE084E3D1AB
:102320002068C16821F08001C1602068C16841F067
:102330004001C160D8E7206A0088C0F30800486007
:10234000206A801C2062E5E74006CDD55006CBD53B
:10235000CA68204622F04002CA6084F8413000F08A
:1023600021F9C1E76B2E000870B5040004D094F881
:102370004100002510B106E0012070BD84F84050F6
:10238000204600F023F8242084F841002068C1682A
:1023900021F40051C160204600F050FE2068016920
:1023A00021F4904101612068416921F02A014161D5
:1023B0002068C16841F40051C1606564202084F840
:1023C000410084F842006563002070BD2DE9F043B0
:1023D00085B0002400940194029403940646036897
:1023E0004448DFF80CC102210322051510274FF0E5
:1023F0008008634539D1836943F4804383618369ED
:1024000003F480430493836943F004038361806988
:10241000DFF8E49000F0040004900802CDE9000128
:10242000039269464846FEF795FFCDE90054694698
:1024300048460294FEF78EFF314D30482860C5E9CA
:102440000174C5E903846C61AC612846EC61FEF758
:1024500009FF08B1FEF7B0FBB56300221146252045
:102460006E62FFF7DDF825203DE0DFF898C0634598
:102470003BD1C36943F48023C361C36903F4802360
:102480000493836943F0080383618069CDE90051B7
:1024900000F00800CDE903201B4D69462846FEF7F1
:1024A00059FFE814CDE90004694628460294FEF776
:1024B00051FF134D1148443528382860C5E901748F
:1024C000C5E903846C61AC612846EC61FEF7CAFE85
:1024D00008B1FEF771FBB5630022114627206E623A
:1024E000FFF79EF82720FFF78DF805B0BDE8F083D1
:1024F0000038014000100240000801404400024042
:102500001808002000480040000C014090F84230BC
:10251000202B01D00220704721B11AB100230363A0
:1025200000F0E8BD012070477047000070B5044618
:1025300090F84100202801D0022070BD49B342B379
:102540002162A284E28400206064212384F8413067
:10255000A56B114BAB62A56B104BEB62A56B104BDF
:102560002B63A36B5863256813462A1DA06BFEF7E7
:10257000A7FE21686FF0400008602068143050E822
:10258000001F41F0800140E80012002AF5D1002030
:1025900070BD012070BD0000C52E0008072F000887
:1025A0007B2E000870477047FEE700002DE9F047DA
:1025B0000026334D334C4FF480574FF400584FF4FE
:1025C00080494FF4004A012802D0287808B114E06D
:1025D0002E7039462046FEF7ADFFA8B14146204691
:1025E000FEF7A8FF80B149462046FEF7A3FF58B189
:1025F00051462046FEF79EFF30B139462046FEF791
:1026000099FF012827D039E00520FEF791FE3946D1
:1026100026462046FEF78EFF012478B1414630461B
:10262000FEF788FF70B149463046FEF783FF60B180
:1026300051463046FEF77EFF50B11FE02C7001205E
:10264000BDE8F0872C700220FAE72C700320F7E732
:102650002C700420F4E741462046FEF76BFF01286A
:102660000CD149462046FEF765FF012806D15146A8
:102670002046FEF75FFF012800D12E700020DFE723
:102680004C000020000C01403EB50024114800948D
:10269000019402940E49846001600473047501255D
:1026A00005614FF460214460C161FEF709FB08B188
:1026B000FEF782FA0420CDE9000569460294054838
:1026C000FEF77CFA002801D0FEF776FA3EBD000046
:1026D00000240140C80600200D4808B5416941F0BA
:1026E000010141614069002200F0010000901146A3
:1026F0000C20FEF795FF0C20FEF784FF0022114608
:102700000E20FEF78DFFBDE808400E20FEF77ABFD1
:102710000010024070B586B000241D48009401945A
:1027200002940394816941F020018161816901F083
:1027300020010491816941F004018161816901F006
:1027400004010491816941F0080181618069114EA1
:1027500000F008004FF440750490012229463046ED
:10276000FEF7EDFE4FF47040CDE900040120029029
:1027700069463046FEF7EEFD11200095CDE90104D3
:102780000320039069463046FEF7E4FD06B070BDB5
:1027900000100240000C014010B586B0002417481C
:1027A000009401940294039404944FF080410594A2
:1027B000016041F61F41C0E9011442F20F71C0E906
:1027C00003148461FFF7DCFA08B1FEF7F5F94FF462
:1027D0008050009069460948FFF75CFB08B1FEF79E
:1027E000EBF92020CDE9040404A90448FFF794FA8A
:1027F000002801D0FEF7E0F906B010BDF806002071
:1028000010B586B0002417480094019402940394F4
:10281000049413490594016040F21311C0E90114B6
:102820003121C0E903148461FFF7AAFA08B1FEF769
:10283000C3F94FF48050009069460A48FFF72AFB1D
:1028400008B1FEF7B9F9049404A906480594FFF706
:1028500063FA002801D0FEF7AFF906B010BD000002
:1028600000080040400700200E4810B50C490160E8
:102870004FF416514160002181600C22C160C0E913
:1028800004128161C161FFF76FFD08B1FEF794F991
:10289000BDE81040012204490248FFF737BE00009E
:1028A0000038014088070020300000200E4810B595
:1028B0000C4901604FF4E1314160002181600C223C
:1028C000C160C0E904128161C161FFF74DFD08B12B
:1028D000FEF772F9BDE81040012204490248FFF7F3
:1028E00015BE000000480040D00700203200002044
:1028F000FEE700002DE9F041154CA079012822D116
:10290000E07904281FD1207A04281CD1A07A617AAA
:1029100000EB0120FDF764FD0E4E0F4F32463B46A3
:10292000FDF7ECFCFDF769FD0C4DE880207BE17ABA
:1029300000EB0120FDF754FD32463B46FDF7DEFC7F
:10294000FDF75BFD288100202071E070BDE8F0817B
:10295000500000209A9999999999B93F0000002058
:1029600004480121017000214170C1700171C0F85B
:102970006012704750000020FEE770B5002404F19B
:10298000B000C0B200F010F9002000F00DF91020E6
:1029900000F00AF90025002000F017F96D1CEDB2D7
:1029A000802DF8D3641CE4B2082CE8D370BD00007D
:1029B00070B50122104D540221462846FEF7BFFD96
:1029C0000322521EFDD20122160231462846FEF78E
:1029D000B6FD0222521EFDD2002231462846FEF7E5
:1029E000AEFD0222521EFDD221462846BDE87040AF
:1029F0000022FEF7A4BD0000000C014070B50D4C94
:102A00004FF48075002229462046FEF798FD0322E8
:102A1000521EFDD2012251022046FEF790FD0222F5
:102A2000521EFDD229462046BDE870400122FEF725
:102A300086BD0000000C014010B5AE2000F0B4F8D7
:102A4000002000F0B1F8102000F0AEF8402000F0B7
:102A5000ABF8812000F0A8F8CF2000F0A5F8A12065
:102A600000F0A2F8C82000F09FF8A62000F09CF823
:102A7000A82000F099F83F2000F096F8D32000F04D
:102A800093F8002000F090F8D52000F08DF8802019
:102A900000F08AF8D92000F087F8F12000F084F8DF
:102AA000DA2000F081F8122000F07EF8DB2000F040
:102AB0007BF8402000F078F8202000F075F8022024
:102AC00000F072F88D2000F06FF8142000F06CF820
:102AD000A42000F069F8A62000F066F8AF2000F00E
:102AE00063F80021BDE810400846AFF3008010B540
:102AF0000446B031C8B200F057F8102040EA141074
:102B000000F052F804F00F00BDE8104040F0010062
:102B100000F04AB82DE9F041224D002406464FF45A
:102B200080786F15300601D5012200E00022414671
:102B30002846FEF704FD0220401EFDD20122394640
:102B40002846FEF7FCFC0220401EFDD2002239463A
:102B50002846FEF7F4FC0220401EFDD27006641CDD
:102B6000060EE4B2082CDDD3012241462846FEF7CA
:102B7000E6FC0221491EFDD2012239462846FEF715
:102B8000DEFC0222521EFDD24FF400512846FEF711
:102B9000D1FC0446002239462846FEF7D0FC2046E8
:102BA000BDE8F081000C014010B50446FFF700FFBE
:102BB0007820FFF7AFFF0020FFF7ACFF2046FFF7BC
:102BC000A9FFBDE81040FFF719BF10B50446FFF795
:102BD000EFFE7820FFF79EFF4020FFF79BFF204687
:102BE000FFF798FFBDE81040FFF708BF2DE9F04759
:102BF000154689460646DFF8748031E000204146DC
:102C000000EB001311F81340944222D101EB43076B
:102C10006C787B78A3421CD149463046FFF767FFAA
:102C2000002438198078FFF7D0FF641CE4B2102C20
:102C3000F7D309F10100C1B23046FFF758FF002475
:102C40003819807CFFF7C1FF641CE4B2102CF7D365
:102C500003E0401CC0B21028D2D31036F6B2AD1C2F
:102C60002A78002ACAD1BDE8F08700009037000812
:102C70002DE9F0410F4680460025A2F12004FFF720
:102C800036FF0D4E05EB0410305CFFF79EFF6D1C08
:102C9000082DF7D37F1CF9B24046FFF728FF002527
:102CA00005EB04103044007AFFF78FFF6D1C082DF0
:102CB000F6D3BDE8F08100008E3900082DE9F0411F
:102CC00017460E46044600250BE031462046FFF726
:102CD000CFFF0834E4B2782C02D90024B61CF6B237
:102CE0006D1C7A5D002AF0D1BDE8F0817047704715
:102CF000FEF730BC30B593B028216846FDF729FABD
:102D000014210AA8FDF725FA002501200F9510953A
:102D10001195010412958DE8230004904FF4E01002
:102D2000CDE90810022407946846FEF74FFE08B16B
:102D300072B6FEE70AA90F2081E831004FF48060E7
:102D4000CDE90D0502210AA8FEF764FD08B172B6AF
:102D5000FEE74FF4004011900F940FA8FEF7E4FC3B
:102D6000002801D072B6FEE713B030BD70470000F6
:102D70000148FFF7FEB80000F80600200148FFF701
:102D8000F8B8000040070020F0B50268194B1A4C53
:102D90001A4D4FF08047984205D0B84203D0A04268
:102DA00001D0A84203D122F070064A68324398420B
:102DB00005D0B84203D0A04201D0A84203D122F4EA
:102DC0004074CA6822434C6922F0800222430260A8
:102DD0008A68C2620A688262984201D10969016305
:102DE000012141610169C90703D0016921F0010195
:102DF0000161F0BD002C01400004004000080040CB
:102E000010B5846842EA032224F47F440A43224333
:102E1000826010BD826822F070020A4342F007010E
:102E20008160704710B5036A046A24F001040462EB
:102E3000846924F0F00444EA021423F00A020A43ED
:102E40008461026210BD10B5036A046A24F01004A4
:102E50000462846923F0A00324F4704444EA02323B
:102E600043EA01118261016210BD10B5406A002180
:102E7000C185C184FFF740F910BD70B5446A206870
:102E8000406994F84110C0F3C0100025212904D1F5
:102E900018B1E584204600F062F82068406994F893
:102EA0004210C0F38010222904D118B1E5852046D4
:102EB00000F02EF8606C40F0100060642046FFF7D0
:102EC0001BF970BD10B50146406A0968096889069A
:102ED00016D40021C1840168143151E8002F22F07A
:102EE000800241E80023002BF5D101680C3151E844
:102EF000002F42F0400241E80023002BF5D110BD25
:102F0000FFF750FB10BD10B5406AFFF74CFB10BD3A
:102F100001680C3151E8002F22F4907241E800233F
:102F2000002BF5D10168143151E8002F22F0010285
:102F300041E80023002BF5D1016B012909D101687B
:102F40000C3151E8002F22F0100241E80023002B41
:102F5000F5D1202180F842100021016370470168FB
:102F60000C3151E8002F22F0C00241E80023002B71
:102F7000F5D1202180F84110704708B590F8421033
:102F8000222901D0022008BD82684FF480539A4262
:102F900001D1016921B1816A9A421BD04AB10AE08C
:102FA0000268816A5268C2F308020A80816A891C39
:102FB00008E0026972B10268526802F07F020A708A
:102FC000816A491C8162C18D491E0904090CC185B1
:102FD00003D01BE002685268F1E70168CA6822F07A
:102FE0002002CA600168CA6822F48072CA6001685F
:102FF0004A6922F001024A61202180F84210002132
:103000004163026B012A03D0FFF78EFA002008BD4E
:10301000016301680C3151E8002F22F0100241E8F1
:103020000023002BF5D101680A68D20602D50A6890
:1030300049680091818DFFF75EF8E7E770B50446B7
:1030400000680169E26821F440511143016121697E
:10305000A0680843616908432168CA6841F20C63AB
:103060009A430243CA6020684169A26921F4407111
:10307000114341611E492068884202D1FEF770FC6D
:1030800001E0FEF75DFC00EBC00101EB001260689F
:1030900064218000B2FBF0F3B3FBF1F36FF018068C
:1030A0007343B2FBF0F5B2FBF0F605EB8305322378
:1030B00003EB0515B5FBF1F5B6FBF1F605F0F005F0
:1030C00005EB0615B2FBF0F6B2FBF0F0B0FBF1F049
:1030D0006FF01802504306EB800003EB0010B0FBCA
:1030E000F1F0216800F00F002844886070BD0000F6
:1030F0000038014081628285C2850021416422211D
:1031000080F84210016921B10168CA6842F48072F6
:10311000CA6001684A6942F001024A610068C168F8
:1031200041F02001C16000207047000010B50F4839
:10313000FEF7E4FF0E48C178012915D00D49037947
:103140000A78411D5A5401790022491CC9B2017103
:10315000C0F86022012900D14170BDE81040012271
:1031600004490248FFF7D2B910BD000088070020CB
:10317000500000203000002070B51A48FEF7BEFF56
:1031800019481B4C194D017820682954401C2060B7
:10319000284410F8021C0D2910D0002110F8010C51
:1031A0000A280DD00020014315D0114A11A1121D8B
:1031B0000E48FCF7E1FF012804D006E00121EDE70D
:1031C0000120F0E71049A0880880216800202944E8
:1031D00001F8020C2060BDE870400122024901485C
:1031E000FFF794B9D007002032000020A00800208B
:1031F00034000020456E6444657669636549443A4D
:10320000333030256400000004000020FEE7000099
:103210000FB4084B10B504A902AA039800F02CF8CB
:10322000044602A9002000F0C8F9204610BC5DF851
:1032300014FB0000BB3500080907090E002804DB59
:1032400000F1E02080F80014704700F00F0000F15A
:10325000E02080F8141D704702E008C8121F08C162
:10326000002AFAD170477047002001E001C1121F07
:10327000002AFBD1704700002DE9FF4F8BB0884634
:103280000546002606E025280BD0DDE90D12904703
:103290006D1C761C28780028F5D10FB03046BDE8AB
:1032A000F08F0024A146A2460122AE4900E004436B
:1032B00015F8013F203B02FA03F00842F7D12878C5
:1032C0002A2810D06FF02F022878A0F130010929A8
:1032D00015D809EB890102EB410144F0020400EB2F
:1032E00001096D1CF0E758F8041B5FEA010903D5DA
:1032F00044F40054C9F1000944F002046D1C28781C
:103300002E2817D115F8010F44F004042A280ED0F6
:103310006FF02F022878A0F1300109290AD80AEBB2
:103320008A0102EB410100EB010A6D1CF2E758F83B
:1033300004AB6D1C28786C280FD006DC4C2817D005
:1033400068280DD06A2814D104E0742810D07A2897
:103350000FD10DE044F400140AE044F4801401E0BD
:1033600044F440146978814202D104F580146D1C44
:103370006D1C2878692865D006DC00288DD063286C
:1033800027D0642806D15DE06E2808D073282AD0A3
:10339000752877D0DDE90D129047761CE0E0C4F384
:1033A0000250022809D003280DD0D8F800100428B4
:1033B0000DD00E6008F10408D2E0D8F80010F21722
:1033C000C1E90062F6E7D8F800100E80F2E70E704F
:1033D000F0E718F8041B8DF8001000208DF80100AC
:1033E000EB46012003E058F804BB4FF0FF306107C3
:1033F0004FF0000701D40AE07F1C57450DDA8742E1
:10340000FADB1BF807100029F6D106E07F1C874283
:10341000FCDB1BF807100029F8D1DDE90D23A9EB2F
:1034200007008146214600F0B1F83044C61904E097
:10343000DDE90D121BF8010B90477F1EF8D22146E3
:10344000484688E058F8040BC4F302514FF00A0BC9
:10345000032900D100B2042900D140B2002802DAC9
:1034600040422D2102E0210505D52B218DF82410A5
:10347000012104E006E0E10710D02021F6E708AFC3
:10348000089113E058F8040BC4F302514FF00A0BF3
:10349000032900D180B2042900D1C0B20021EEE797
:1034A0005946FCF7C3FF303107F8011D0028F7D15A
:1034B000ADEB070000F1200B600702D524F4803447
:1034C00001E04FF0010ADA4502DDAAEB0B0000E053
:1034D0000020824600EB0B0108980144A9EB010093
:1034E0000A90E00306D4DDE90D2321460A9800F096
:1034F0004DF806444FF0000908E009A911F8090049
:10350000DDE90D12904709F10109761C08998945FA
:10351000F3DBE0030CD5DDE90D2321460A9800F02A
:1035200035F8064404E0DDE90D1230209047761CA2
:10353000BAF10001AAF1010AF5DC05E0DDE90D129E
:1035400017F8010B9047761CBBF10001ABF1010BA2
:10355000F4DC0A982146DDE90D2300F005F8064465
:103560006D1C97E6092801002DE9F041044600256D
:103570001E461746880404D405E039462020B0478B
:103580006D1C641EF9D52846BDE8F0812DE9F04197
:10359000044600251E469046C80301D5302700E0AA
:1035A0002027880404D505E041463846B0476D1C05
:1035B000641EF9D52846BDE8F0810A68531C0B60EB
:1035C0001070704710B50420FDF720FA064CC0F5C6
:1035D000805060810520FDF719FAA0810620FDF7D3
:1035E00015FAE08110BD000000000020FDF7BAFFD1
:1035F000FFF780FBFFF7B4F9FFF78CF8FFF76CF8E3
:10360000FFF742F8FFF730F9FFF7FAF8FFF74EF946
:10361000FFF7C2F81348FEF711FC1348FEF70EFC43
:10362000FFF70AFAFFF7A9F90025104CFDF72EFA6B
:103630000020FEF7BBFF042804D12078C04320708F
:10364000FFF79BF960880228F0D308490822283147
:103650000748FEF76BFFFFF7B5FF00F00BF865803A
:10366000E4E70000F80600204007002000000020EA
:103670008807002010B5204C86B0A088002835D0DF
:103680006178A9B100216170616ACDE90010E38918
:103690001AA12148226AFFF7BBFD1F48FCF764FD11
:1036A00006B082B2BDE810401B491C48FEF73EBF81
:1036B000D4E906020DF1080CA38961898CE80F009A
:1036C00021896069CDE90001E38815A112482269CA
:1036D000FFF79EFD1048FCF747FD82B20E490F48E8
:1036E000FEF724FF0120607006B010BD17A10A4844
:1036F000FFF78EFDD1E70000000000205A696762E5
:1037000065653A7B222573223A25642C2225732293
:103710003A25647D0D0A0000C8020020D007002071
:103720005A69676265653A7B222573223A25642CC3
:10373000222573223A25642C222573223A25642CF3
:10374000222573223A25647D0D0A000049443A0D72
:103750000A000000010202030405060708090A0B1B
:103760000C0D0E0F101001020203040506070809D4
:103770000A0B0C0D0E0F10100000000000000000DE
:103780000102030406070809000000000102030407
:10379000D6D52030AC6330201018A744A4140C00F8
:1037A00000002267221212020121244448910102E2
:1037B0000200B6CBC808090EE808405E5050DF5042
:1037C000505E4000206F201C131000FE027F027E1E
:1037D00082FE0000CEC21060028C0000FE92929227
:1037E0009292FE00000004047E01407E42427E422E
:1037F0007E42427E4000B6C80000FC242424FC2502
:103800002624FC242424040040308F80844C552539
:103810002525554C80808000CAAA1060028C00FECD
:10382000929292929292FE00000004047E0144481B
:10383000507F40407F5048444000B9E240404244FD
:1038400058C0407F40C050484640400080804020E3
:1038500018070000003F404040407800C7BF02E228
:1038600022223E00809E9292F292929E800000431D
:1038700082423E40474444447F444454E700D1CC14
:10388000807000FF1008FE424242FA424242FE00AF
:10389000806018070810FF50484641424C40FF0026
:1038A000CEED100C055555D5057F0555555505141C
:1038B0000C001010108AA96B352525ABE9081010F3
:1038C0001000BFD5100C442414040506040414246D
:1038D00044140C00004040414141417F414141417D
:1038E00040400000C6F820104C47545454545454DF
:1038F00054D4040400000000000000000000000098
:10390000000F3040F000D6CA0000FE1212929292D0
:1039100092FF91919191100080601F80805F402004
:10392000100E1010205F8000C1BF202020BEAAAA68
:10393000AAAAAAAAAABE20202000008080AFAAAA14
:10394000AAFFAAAAAAAF80800000D5D500FE4242F5
:1039500042FE0042A29E82A2C2BE0000806F080802
:1039600028CF00002FC8080828CF0000B6C80000E4
:10397000FC242424FC252624FC2424240400403098
:103980008F80844C55252525554C80808000000073
:103990000000000000000000000000000000000027
:1039A00000F80000000000000033300000000010AC
:1039B0000C06100C0600000000000000000040C0D3
:1039C0007840C0784000043F04043F0404000070C5
:1039D00088FC08300000001820FF211E0000F008BD
:1039E000F000E018000000211C031E211E0000F062
:1039F0000888700000001E212324192721101016AA
:103A00000E000000000000000000000000000000A8
:103A100000E0180402000000000718204000000227
:103A20000418E0000000004020180700000040409B
:103A300080F0804040000202010F010202000000FD
:103A400000F0000000000101011F01010100000061
:103A500000000000000080B07000000000000000C6
:103A6000000000000000000101010101010100004F
:103A700000000000000000303000000000000000E6
:103A8000000080601804006018060100000000E0DB
:103A900010080810E000000F102020100F00001088
:103AA00010F8000000000020203F202000000070DF
:103AB00008080888700000302824222130000030D7
:103AC0000888884830000018202020110E000000CF
:103AD000C02010F8000000070424243F240000F850
:103AE0000888880808000019212020110E0000E035
:103AF000108888180000000F112020110E000038D7
:103B00000808C83808000000003F000000000070EE
:103B1000880808887000001C222121221C0000E077
:103B200010080810E0000000312222110F000000F0
:103B300000C0C000000000000030300000000000A5
:103B40000080000000000000806000000000000015
:103B500080402010080000010204081020004040AE
:103B600040404040400004040404040404000008F1
:103B700010204080000000201008040201000070A6
:103B800048080808F0000000003036010000C0308E
:103B9000C828E810E0000718272423140B000000B1
:103BA000C038E0000000203C23020227382008F83B
:103BB000888888700000203F202020110E00C0302F
:103BC000080808083800071820202010080008F806
:103BD00008080810E000203F202020100F0008F8FF
:103BE0008888E8081000203F20202320180008F8CB
:103BF0008888E8081000203F200003000000C03043
:103C000008080838000007182020221E020008F8C3
:103C100008000008F808203F210101213F2000088A
:103C200008F8080800000020203F202000000000C5
:103C30000808F8080800C08080807F00000008F8AD
:103C400088C028180800203F20012638200008F8E6
:103C5000080000000000203F20202020300008F84D
:103C6000F800F8F80800203F003F003F200008F867
:103C700030C00008F808203F200007183F00E0107F
:103C800008080810E0000F10202020100F0008F88E
:103C900008080808F000203F210101010000E010A1
:103CA00008080810E0000F18242438504F0008F8C6
:103CB000888888887000203F2000030C3020007026
:103CC0008808080838000038202121221C00180824
:103CD00008F8080818000000203F2000000008F83D
:103CE00008000008F808001F202020201F00087886
:103CF000880000C83808000007380E010000F808E6
:103D000000F80008F800033C0700073C030008180F
:103D100068808068180820302C03032C3020083875
:103D2000C800C83808000000203F2000000010082C
:103D30000808C83808002038262120201800000074
:103D400000FE020202000000007F40404000000C24
:103D500030C000000000000000010638C000000272
:103D60000202FE000000004040407F000000000012
:103D70000402020204000000000000000000000035
:103D80000000000000008080808080808080000231
:103D9000020400000000000000000000000000001D
:103DA0008080808000000019242222223F2008F811
:103DB000008080000000003F112020110E00000054
:103DC000008080800000000E1120202011000000E3
:103DD00000808088F800000E112020103F20000095
:103DE000808080800000001F222222221300008099
:103DF00080F0888888180020203F202000000000E4
:103E0000808080808000006B94949493600008F818
:103E1000008080800000203F210000203F200080A3
:103E20009898000000000020203F202000000000A3
:103E300000809898000000C08080807F000008F813
:103E4000000080808000203F24022D3020000008E8
:103E500008F8000000000020203F202000008080A3
:103E6000808080808000203F20003F20003F8080B5
:103E7000008080800000203F210000203F200000C3
:103E8000808080800000001F202020201F00808074
:103E900000808000000080FFA12020110E000000A3
:103EA000008080808000000E112020A0FF80808094
:103EB00080008080800020203F2120000100000041
:103EC0008080808080000033242424241900008016
:103ED00080E0808000000000001F20200000808023
:103EE000000000808000001F202020103F208080E4
:103EF00080000080808000010E3008060100808074
:103F00000080008080800F300C030C300F00008098
:103F10008000808080000020312E0E3120008080C3
:103F200080000080808080818E70180601000080F3
:103F30008080808080000021302C22213000000011
:103F40000000807C020200000000003F40400000B2
:103F50000000FF00000000000000FF000000000261
:103F6000027C800000000040403F0000000000068E
:103F70000101020204040000000000000000FF989C
:103F80000C777801CDFFC09F10FB583EFD01C09F0C
:103F900010FA583EFD01DE98FCC83A501D3DDE8106
:103FA000684F05A3D13DDE819B77E200C13DC097FC
:103FB00073443C5E2101C09773443C5E2101FF962F
:103FC00094B4A5AD2DFF0017F3FC2411EC001E9155
:103FD00098C7F98EDFCF1E9198C7F98EDFCF3917BA
:103FE000EF7659B0C33CF6FE1003220E2EDFF661C9
:103FF0009BB89BE2EC23F6619BB98BE2EC230E9F0E
:1040000090CB845F3CD10E0E1B841E231110D798D9
:10401000908BA23FFCC10809F0F3FC111E21080996
:10402000F0F3FC111E21E789134B4003D01F0F1E34
:104030009FF340710EFCEFE91C4BC003DD133660AB
:104040001F4019F0EDE136601F4019F0EDE12F8EB1
:10405000F3CF9FE3FDCD3E1898300222030C3FF8CA
:1040600094B7E19D3FF33FF894B7E19D3FF30E17FE
:104070007C04240CFC231E9FEB74A06FCD2CDE105F
:10408000103C3C231C2CD7F67337FC642FFFD7F66B
:104090007337FC6C2FFFCE69083A658CE2C030EEB6
:1040A0007403BFD11E1EF16017302442C00FF160AF
:1040B00017302442C00FF098983827DF2FD3FE190D
:1040C0000F309E4300C230EE7370C411D23D30EE0B
:1040D0007370C411D23DDE698470FDC31FCCCE90D5
:1040E0008F74FC11E333E8187047A1BCEC03EF9820
:1040F00080675DC3DD32EF9880775DC3DD32EE67A8
:1041000007B047E1C10C2190704C279F1F03381165
:10411000988CA3AEE0E23811988DA3AEE0E2F0F9FE
:10412000740FE1DF3FFE001193443DAFEC22FF88A6
:10413000708CA6110D33C08603BC21ECFC23C08615
:1041400003BC21ECFC23DE9F0487FE13FFECDE9111
:1041500063F0E5C2C3E1DE99777BE7DE30C3DE9929
:10416000777BE7DE30C3C088F00CFE30E301FF86CA
:10417000FB7A1F93F02F00000000000000000000F9
:10418000000000000000000000000000000000002F
:10419000000000000000000000000000000080C0DF
:1041A000E070303818181818183070E0E0C00000BF
:1041B00000000000000000000000C0F8FEFF1F0724
:1041C000010000000000000000000000030FFFFEDF
:1041D000F8C000000000000000FCFFFFFF0300002B
:1041E000000000000000000000000000000001FFCF
:1041F000FFFFFC000000000000FFFFFFFF000000C9
:10420000000000000000000000000000000000FFAF
:10421000FFFFFF000000000000000F7FFFFFE080B5
:1042200000000000000000000000000000E0FEFFB1
:104230007F0F000000000000000000000103070FD6
:104240001E383070606060606030381C1F0F0301E2
:10425000000000000000000000000000000000005E
:10426000000000000000000000000000000000004E
:10427000000000000000000000000000000000003E
:10428000000000000000000000000000000000002E
:10429000000000000000000000000000008080809E
:1042A000808080C0C0E0F0F8000000000000000046
:1042B00000000000000000000000000000010101FB
:1042C00001010103FFFFFFFF0000000000000000EC
:1042D00000000000000000000000000000000000DE
:1042E00000000000FFFFFFFF0000000000000000D2
:1042F00000000000000000000000000000000000BE
:1043000000000000FFFFFFFF0000000000000000B1
:10431000000000000000000000000000000000009D
:1043200000000000FFFFFFFF000000000000000091
:10433000000000000000000000000000006060605D
:10434000606070787F7F7F7F787060606060600001
:10435000000000000000000000000000000000005D
:10436000000000000000000000000000000000004D
:10437000000000000000000000000000000000003D
:10438000000000000000000000000000000000002D
:1043900000000000000000000000000080C0E0E01D
:1043A000703038181818181818383070F0E0C080BD
:1043B00000000000000000000000F8FFFFFFF1C057
:1043C0000000000000000000000000000003FFFFEC
:1043D000FFFC0000000000000000010303030301D4
:1043E0000000000000000000000080C0F0FE7F3FE1
:1043F0000F010000000000000000000000000000AD
:1044000000000080C0E070381C0E070301000000AF
:10441000000000000000000000000080C0E0F03854
:104420001C0E070301000000000000000000000057
:10443000F0F0000000000000007C7E7F7B7978783F
:10444000787878787878787878787878787C7E7FDB
:104450007F000000000000000000000000000000DD
:10446000000000000000000000000000000000004C
:10447000000000000000000000000000000000003C
:10448000000000000000000000000000000000002C
:1044900000000000000000000000000080C060304C
:1044A00030101818181818383870F0E0C080000064
:1044B00000000000000000000000003E7F7F380088
:1044C000000000000000000000000007FFFFFFFCEC
:1044D00000000000000000000000000000000000DC
:1044E000000080808080C0C0E060783E1F0F070120
:1044F00000000000000000000000000000000000BC
:1045000000000101010101030303070E1C7CF8F008
:10451000C0000000000000000000E0F0F8F8F8F033
:104520000000000000000000000000000080FFFF0D
:10453000FF7F000000000000000001070F1F1F3870
:104540003070606060606060603030381E0F07035C
:10455000010000000000000000000000000000005A
:10456000000000000000000000000000000000004B
:10457000000000000000000000000000000000003B
:10458000000000000000000000000000000000002B
:10459000000000000000000000000000000000001B
:1045A0000000000000000000C0E0F8F8F800000083
:1045B00000000000000000000000000000000000FB
:1045C000000000C0F0781E0703FFFFFFFF0000009F
:1045D0000000000000000000000000000080C0F0AB
:1045E000381E07030000000000FFFFFFFF0000006F
:1045F000000000000000000080C0F0381E0701002D
:10460000000000000000000000FFFFFFFF000000AE
:104610000000000000000000030303030303030382
:10462000030303030303030303FFFFFFFF0303036A
:10463000030303030000000000000000000000006E
:104640000000606060606060707F7F7F7F7060608E
:10465000606060000000000000000000000000003A
:10466000000000000000000000000000000000004A
:10467000000000000000000000000000000000003A
:10468000000000000000000000000000000000002A
:1046900000000000000000000000000000F8F878B2
:1046A000787878787878787878787878787878788A
:1046B00038000000000000000000000000FF7F0044
:1046C00000000000000000000000000000000000EA
:1046D000000000000000000000000000FEFF80E07D
:1046E000703838181C1C1C1C1C3C3C78F8F0E0C0CE
:1046F00000000000000000000000000003030300B1
:10470000000000000000000000000000010FFFFF9B
:10471000FFF80000000000000000F0F8FCFCFC784E
:1047200000000000000000000000000000C0FFFFCB
:10473000FF1F00000000000000000103070F1F38EA
:1047400030306060606060606030383C1E0F07038E
:104750000000000000000000000000000000000059
:104760000000000000000000000000000000000049
:104770000000000000000000000000000000000039
:104780000000000000000000000000000000000029
:104790000000000000000000000000000000008099
:1047A000C0E060303018181818181838F0F0E0C061
:1047B0008000000000000000000080F0FCFE0F03FD
:1047C000010000000000000000000000070F0F0FB4
:1047D000070000000000000000F0FFFFFF0180C0A4
:1047E000E0E070703838383838387870F0F0E0C071
:1047F000800000000000000000FFFFFFFF1E070315
:1048000001000000000000000000000000030FFF96
:10481000FFFEF0000000000000033FFFFFF88000F3
:104820000000000000000000000000000000C0FFC9
:10483000FFFF1F00000000000000000003070F1F23
:104840003C3830706060606060603030381E0F0748
:104850000300000000000000000000000000000055
:104860000000000000000000000000000000000048
:104870000000000000000000000000000000000038
:104880000000000000000000000000000000000028
:104890000000000000000000000000F0F8F8F8F848
:1048A0007878787878787878787878787878F8F888
:1048B00078380000000000000000383F07010000C9
:1048C0000000000000000000000080E0781E0701EA
:1048D00000000000000000000000000000000000D8
:1048E00000000000000080E0FC7F0F0100000000DD
:1048F00000000000000000000000000000000000B8
:10490000000000C0F8FEFF1F0300000000000000D0
:104910000000000000000000000000000000000097
:1049200000C0FEFFFFFFFF000000000000000000CD
:104930000000000000000000000000000000000077
:10494000003F7F7F7F7F3F000000000000000000ED
:104950000000000000000000000000000000000057
:104960000000000000000000000000000000000047
:104970000000000000000000000000000000000037
:104980000000000000000000000000000000000027
:1049900000000000000000000000000080C0E0F007
:1049A000703038181818181818383070F0E0C080B7
:1049B00000000000000000000000FCFFFFFF83007B
:1049C0000000000000000000000000000003FFFFE6
:1049D000FFFC000000000000000001070F1F3F7EE9
:1049E0007CF8F0F0E0E0C0C080C06070381E1F0F9F
:1049F00003000000000000000000C0F0F8FC3E0EC4
:104A000007030101010303070F1F1F3EFEFCF8F01F
:104A1000C000000000000000007FFFFFFF800000DA
:104A20000000000000000000000000000003FFFF85
:104A3000FF7F000000000000000001070F0F1E387C
:104A40003830706060606060607030381C1F0F0725
:104A50000100000000000000000000000000000055
:104A60000000000000000000000000000000000046
:104A70000000000000000000000000000000000036
:104A80000000000000000000000000000000000026
:104A900000000000000000000000000080C0E0F006
:104AA0007038181818181818383070E0C0800000D6
:104AB000000000000000000000E0FCFFFF0F01000C
:104AC000000000000000000000000000031FFFFCC9
:104AD000F000000000000000007FFFFFFFC00000AA
:104AE00000000000000000000000000080E0FFFF68
:104AF000FFFF000000000000000003070F1F3F3C05
:104B00007878707070707038381C1E0F03C0FFFF0B
:104B1000FF3F00000000000000000080C0C0C08017
:104B20000000000000000000000000C0F8FF7F1F30
:104B30000300000000000000000000071F3F3F3F8F
:104B40007060606060603030381C0F070301000047
:104B50000000000000000000000000000000000055
:104B60000000000000000000000000000000000045
:104B7000000000000000DDDDDDDDDCBBBBDDDDDDD8
:104B8000DDDDDDDDDDDD98888888888888887777B9
:104B9000777777888888855555566666666666662F
:104BA0006666666888888333333222222222222274
:104BB00022222228888D0000494400004D51325F96
:104BC00076616C75650000004D513133355F76615B
:104BD0006C756500677A5F76616C75650000000032
:104BE00048756D0054656D70000000000C4C0008A5
:104BF0000000002050000000583200085C4C000803
:104C000050000020500D0000683200080000000035
:104C1000000000000000000000000000E44B00085D
:104C2000E04B0008D44B0008BC4B0008C84B000800
:104C3000B84B000801040000000271CB0000000026
:104C40000000000000000000010000001000000053
:0C4C50000000000000127A0000000000CC
:04000005080000ED02
:00000001FF
